{
  "contractName": "Pool",
  "abi": [
    {
      "inputs": [],
      "stateMutability": "nonpayable",
      "type": "constructor"
    },
    {
      "anonymous": false,
      "inputs": [
        {
          "indexed": true,
          "internalType": "address",
          "name": "buyer",
          "type": "address"
        },
        {
          "indexed": false,
          "internalType": "uint256",
          "name": "coverageID",
          "type": "uint256"
        },
        {
          "indexed": false,
          "internalType": "string",
          "name": "statement",
          "type": "string"
        }
      ],
      "name": "ClaimOpened",
      "type": "event"
    },
    {
      "anonymous": false,
      "inputs": [
        {
          "indexed": false,
          "internalType": "uint256",
          "name": "coverageID",
          "type": "uint256"
        }
      ],
      "name": "ClaimPayedOut",
      "type": "event"
    },
    {
      "anonymous": false,
      "inputs": [
        {
          "indexed": false,
          "internalType": "uint256",
          "name": "coverageID",
          "type": "uint256"
        },
        {
          "indexed": false,
          "internalType": "bool",
          "name": "decision",
          "type": "bool"
        }
      ],
      "name": "ClaimResolved",
      "type": "event"
    },
    {
      "anonymous": false,
      "inputs": [
        {
          "indexed": false,
          "internalType": "uint256",
          "name": "newPrice",
          "type": "uint256"
        }
      ],
      "name": "CoverPriceUpdated",
      "type": "event"
    },
    {
      "anonymous": false,
      "inputs": [
        {
          "indexed": true,
          "internalType": "address",
          "name": "buyer",
          "type": "address"
        },
        {
          "indexed": false,
          "internalType": "uint256",
          "name": "period",
          "type": "uint256"
        },
        {
          "indexed": false,
          "internalType": "uint256",
          "name": "amount",
          "type": "uint256"
        }
      ],
      "name": "CoverPurchased",
      "type": "event"
    },
    {
      "anonymous": false,
      "inputs": [
        {
          "indexed": true,
          "internalType": "address",
          "name": "provider",
          "type": "address"
        },
        {
          "indexed": false,
          "internalType": "uint256",
          "name": "amount",
          "type": "uint256"
        }
      ],
      "name": "Deposited",
      "type": "event"
    },
    {
      "anonymous": false,
      "inputs": [
        {
          "indexed": true,
          "internalType": "address",
          "name": "previousOwner",
          "type": "address"
        },
        {
          "indexed": true,
          "internalType": "address",
          "name": "newOwner",
          "type": "address"
        }
      ],
      "name": "OwnershipTransferred",
      "type": "event"
    },
    {
      "anonymous": false,
      "inputs": [
        {
          "indexed": false,
          "internalType": "uint256",
          "name": "reward",
          "type": "uint256"
        }
      ],
      "name": "RewardAdded",
      "type": "event"
    },
    {
      "anonymous": false,
      "inputs": [
        {
          "indexed": true,
          "internalType": "address",
          "name": "user",
          "type": "address"
        },
        {
          "indexed": false,
          "internalType": "uint256",
          "name": "reward",
          "type": "uint256"
        }
      ],
      "name": "RewardPaid",
      "type": "event"
    },
    {
      "anonymous": false,
      "inputs": [
        {
          "indexed": true,
          "internalType": "address",
          "name": "user",
          "type": "address"
        },
        {
          "indexed": false,
          "internalType": "uint256",
          "name": "amount",
          "type": "uint256"
        }
      ],
      "name": "Withdrawn",
      "type": "event"
    },
    {
      "inputs": [],
      "name": "_totalSupply",
      "outputs": [
        {
          "internalType": "uint256",
          "name": "",
          "type": "uint256"
        }
      ],
      "stateMutability": "view",
      "type": "function",
      "constant": true
    },
    {
      "inputs": [],
      "name": "availableCapital",
      "outputs": [
        {
          "internalType": "uint256",
          "name": "",
          "type": "uint256"
        }
      ],
      "stateMutability": "view",
      "type": "function",
      "constant": true
    },
    {
      "inputs": [
        {
          "internalType": "uint256",
          "name": "",
          "type": "uint256"
        }
      ],
      "name": "buyerOf",
      "outputs": [
        {
          "internalType": "address",
          "name": "",
          "type": "address"
        }
      ],
      "stateMutability": "view",
      "type": "function",
      "constant": true
    },
    {
      "inputs": [],
      "name": "coverCount",
      "outputs": [
        {
          "internalType": "uint256",
          "name": "",
          "type": "uint256"
        }
      ],
      "stateMutability": "view",
      "type": "function",
      "constant": true
    },
    {
      "inputs": [
        {
          "internalType": "address",
          "name": "",
          "type": "address"
        }
      ],
      "name": "coverageOf",
      "outputs": [
        {
          "internalType": "uint256",
          "name": "id",
          "type": "uint256"
        },
        {
          "internalType": "uint256",
          "name": "expirationTime",
          "type": "uint256"
        },
        {
          "internalType": "uint256",
          "name": "coverAmount",
          "type": "uint256"
        }
      ],
      "stateMutability": "view",
      "type": "function",
      "constant": true
    },
    {
      "inputs": [],
      "name": "coveragePrice",
      "outputs": [
        {
          "internalType": "uint256",
          "name": "",
          "type": "uint256"
        }
      ],
      "stateMutability": "view",
      "type": "function",
      "constant": true
    },
    {
      "inputs": [],
      "name": "lastUpdateTime",
      "outputs": [
        {
          "internalType": "uint256",
          "name": "",
          "type": "uint256"
        }
      ],
      "stateMutability": "view",
      "type": "function",
      "constant": true
    },
    {
      "inputs": [],
      "name": "mcr",
      "outputs": [
        {
          "internalType": "uint256",
          "name": "",
          "type": "uint256"
        }
      ],
      "stateMutability": "view",
      "type": "function",
      "constant": true
    },
    {
      "inputs": [
        {
          "internalType": "uint256",
          "name": "",
          "type": "uint256"
        }
      ],
      "name": "openClaims",
      "outputs": [
        {
          "internalType": "bool",
          "name": "",
          "type": "bool"
        }
      ],
      "stateMutability": "view",
      "type": "function",
      "constant": true
    },
    {
      "inputs": [],
      "name": "owner",
      "outputs": [
        {
          "internalType": "address",
          "name": "",
          "type": "address"
        }
      ],
      "stateMutability": "view",
      "type": "function",
      "constant": true
    },
    {
      "inputs": [],
      "name": "periodFinish",
      "outputs": [
        {
          "internalType": "uint256",
          "name": "",
          "type": "uint256"
        }
      ],
      "stateMutability": "view",
      "type": "function",
      "constant": true
    },
    {
      "inputs": [],
      "name": "renounceOwnership",
      "outputs": [],
      "stateMutability": "nonpayable",
      "type": "function"
    },
    {
      "inputs": [],
      "name": "rewardPerEthStored",
      "outputs": [
        {
          "internalType": "uint256",
          "name": "",
          "type": "uint256"
        }
      ],
      "stateMutability": "view",
      "type": "function",
      "constant": true
    },
    {
      "inputs": [],
      "name": "rewardRate",
      "outputs": [
        {
          "internalType": "uint256",
          "name": "",
          "type": "uint256"
        }
      ],
      "stateMutability": "view",
      "type": "function",
      "constant": true
    },
    {
      "inputs": [
        {
          "internalType": "address",
          "name": "",
          "type": "address"
        }
      ],
      "name": "rewards",
      "outputs": [
        {
          "internalType": "uint256",
          "name": "",
          "type": "uint256"
        }
      ],
      "stateMutability": "view",
      "type": "function",
      "constant": true
    },
    {
      "inputs": [],
      "name": "rewardsDuration",
      "outputs": [
        {
          "internalType": "uint256",
          "name": "",
          "type": "uint256"
        }
      ],
      "stateMutability": "view",
      "type": "function",
      "constant": true
    },
    {
      "inputs": [],
      "name": "rewardsToken",
      "outputs": [
        {
          "internalType": "contract QuasarToken",
          "name": "",
          "type": "address"
        }
      ],
      "stateMutability": "view",
      "type": "function",
      "constant": true
    },
    {
      "inputs": [
        {
          "internalType": "address",
          "name": "newOwner",
          "type": "address"
        }
      ],
      "name": "transferOwnership",
      "outputs": [],
      "stateMutability": "nonpayable",
      "type": "function"
    },
    {
      "inputs": [
        {
          "internalType": "address",
          "name": "",
          "type": "address"
        }
      ],
      "name": "userRewardPerEthPaid",
      "outputs": [
        {
          "internalType": "uint256",
          "name": "",
          "type": "uint256"
        }
      ],
      "stateMutability": "view",
      "type": "function",
      "constant": true
    },
    {
      "inputs": [],
      "name": "totalSupply",
      "outputs": [
        {
          "internalType": "uint256",
          "name": "",
          "type": "uint256"
        }
      ],
      "stateMutability": "view",
      "type": "function",
      "constant": true
    },
    {
      "inputs": [
        {
          "internalType": "address",
          "name": "account",
          "type": "address"
        }
      ],
      "name": "balanceOf",
      "outputs": [
        {
          "internalType": "uint256",
          "name": "",
          "type": "uint256"
        }
      ],
      "stateMutability": "view",
      "type": "function",
      "constant": true
    },
    {
      "inputs": [],
      "name": "lastTimeRewardApplicable",
      "outputs": [
        {
          "internalType": "uint256",
          "name": "",
          "type": "uint256"
        }
      ],
      "stateMutability": "view",
      "type": "function",
      "constant": true
    },
    {
      "inputs": [],
      "name": "rewardPerEth",
      "outputs": [
        {
          "internalType": "uint256",
          "name": "",
          "type": "uint256"
        }
      ],
      "stateMutability": "view",
      "type": "function",
      "constant": true
    },
    {
      "inputs": [
        {
          "internalType": "address",
          "name": "account",
          "type": "address"
        }
      ],
      "name": "earned",
      "outputs": [
        {
          "internalType": "uint256",
          "name": "",
          "type": "uint256"
        }
      ],
      "stateMutability": "view",
      "type": "function",
      "constant": true
    },
    {
      "inputs": [],
      "name": "getRewardForDuration",
      "outputs": [
        {
          "internalType": "uint256",
          "name": "",
          "type": "uint256"
        }
      ],
      "stateMutability": "view",
      "type": "function",
      "constant": true
    },
    {
      "inputs": [
        {
          "internalType": "uint256",
          "name": "_coverPeriod",
          "type": "uint256"
        },
        {
          "internalType": "uint256",
          "name": "_coverAmount",
          "type": "uint256"
        }
      ],
      "name": "buyCoverage",
      "outputs": [
        {
          "internalType": "bool",
          "name": "",
          "type": "bool"
        }
      ],
      "stateMutability": "payable",
      "type": "function",
      "payable": true
    },
    {
      "inputs": [],
      "name": "deposit",
      "outputs": [],
      "stateMutability": "payable",
      "type": "function",
      "payable": true
    },
    {
      "inputs": [
        {
          "internalType": "uint256",
          "name": "amount",
          "type": "uint256"
        }
      ],
      "name": "withdraw",
      "outputs": [],
      "stateMutability": "nonpayable",
      "type": "function"
    },
    {
      "inputs": [],
      "name": "getReward",
      "outputs": [],
      "stateMutability": "nonpayable",
      "type": "function"
    },
    {
      "inputs": [],
      "name": "exit",
      "outputs": [],
      "stateMutability": "nonpayable",
      "type": "function"
    },
    {
      "inputs": [
        {
          "internalType": "string",
          "name": "statement",
          "type": "string"
        }
      ],
      "name": "openClaim",
      "outputs": [],
      "stateMutability": "nonpayable",
      "type": "function"
    },
    {
      "inputs": [
        {
          "internalType": "uint256",
          "name": "coverageID",
          "type": "uint256"
        },
        {
          "internalType": "bool",
          "name": "decision",
          "type": "bool"
        }
      ],
      "name": "resolveClaim",
      "outputs": [],
      "stateMutability": "nonpayable",
      "type": "function"
    },
    {
      "inputs": [
        {
          "internalType": "uint256",
          "name": "_coveragePrice",
          "type": "uint256"
        }
      ],
      "name": "setCoveragePrice",
      "outputs": [],
      "stateMutability": "nonpayable",
      "type": "function"
    }
  ],
  "bytecode": "0x608060405260006003556000600455624f1a006005553480156200002257600080fd5b506000620000356200024660201b60201c565b9050806000806101000a81548173ffffffffffffffffffffffffffffffffffffffff021916908373ffffffffffffffffffffffffffffffffffffffff1602179055508073ffffffffffffffffffffffffffffffffffffffff16600073ffffffffffffffffffffffffffffffffffffffff167f8be0079c531659141344cd1fd0a4f28419497f9722a3daafe3b4186f6b6457e060405160405180910390a35060018081905550604051620000e89062000b55565b604051809103906000f08015801562000105573d6000803e3d6000fd5b50600260006101000a81548173ffffffffffffffffffffffffffffffffffffffff021916908373ffffffffffffffffffffffffffffffffffffffff160217905550600260009054906101000a900473ffffffffffffffffffffffffffffffffffffffff1673ffffffffffffffffffffffffffffffffffffffff166340c10f1930620f42406040518363ffffffff1660e01b8152600401808373ffffffffffffffffffffffffffffffffffffffff1673ffffffffffffffffffffffffffffffffffffffff16815260200182815260200192505050600060405180830381600087803b158015620001f357600080fd5b505af115801562000208573d6000803e3d6000fd5b5050505062000220620f42406200024e60201b60201c565b6000600b819055506002600a819055506000600c819055506000600d8190555062000b63565b600033905090565b600062000260620005d660201b60201c565b600781905550620002766200069160201b60201c565b600681905550600073ffffffffffffffffffffffffffffffffffffffff168173ffffffffffffffffffffffffffffffffffffffff16146200034c57620002c281620006b160201b60201c565b600960008373ffffffffffffffffffffffffffffffffffffffff1673ffffffffffffffffffffffffffffffffffffffff16815260200190815260200160002081905550600754600860008373ffffffffffffffffffffffffffffffffffffffff1673ffffffffffffffffffffffffffffffffffffffff168152602001908152602001600020819055505b60035442106200037e576200037260055483620007f360201b620025431790919060201c565b600481905550620003fc565b60006200039c426003546200084560201b620024731790919060201c565b90506000620003bc600454836200089760201b620024bd1790919060201c565b9050620003f3600554620003df83876200092260201b6200258d1790919060201c565b620007f360201b620025431790919060201c565b60048190555050505b6000600260009054906101000a900473ffffffffffffffffffffffffffffffffffffffff1673ffffffffffffffffffffffffffffffffffffffff166370a08231306040518263ffffffff1660e01b8152600401808273ffffffffffffffffffffffffffffffffffffffff1673ffffffffffffffffffffffffffffffffffffffff16815260200191505060206040518083038186803b1580156200049e57600080fd5b505afa158015620004b3573d6000803e3d6000fd5b505050506040513d6020811015620004ca57600080fd5b81019080805190602001909291905050509050620004f960055482620007f360201b620025431790919060201c565b600454111562000571576040517f08c379a00000000000000000000000000000000000000000000000000000000081526004018080602001828103825260188152602001807f50726f76696465642072657761726420746f6f2068696768000000000000000081525060200191505060405180910390fd5b4260068190555062000594600554426200092260201b6200258d1790919060201c565b6003819055507fde88a922e0d3b88b24e9623efeb464919c6bf9f66857a65e2bfcf2ce87a9433d836040518082815260200191505060405180910390a1505050565b6000806011541415620005ee5760075490506200068e565b6200068b6200067460115462000660670de0b6b3a76400006200064c60045462000638600654620006246200069160201b60201c565b6200084560201b620024731790919060201c565b6200089760201b620024bd1790919060201c565b6200089760201b620024bd1790919060201c565b620007f360201b620025431790919060201c565b6007546200092260201b6200258d1790919060201c565b90505b90565b6000620006ac42600354620009ab60201b6200261d1760201c565b905090565b6000620007ec600960008473ffffffffffffffffffffffffffffffffffffffff1673ffffffffffffffffffffffffffffffffffffffff16815260200190815260200160002054620007d8670de0b6b3a7640000620007c462000770600860008973ffffffffffffffffffffffffffffffffffffffff1673ffffffffffffffffffffffffffffffffffffffff168152602001908152602001600020546200075c620005d660201b60201c565b6200084560201b620024731790919060201c565b601260008973ffffffffffffffffffffffffffffffffffffffff1673ffffffffffffffffffffffffffffffffffffffff168152602001908152602001600020546200089760201b620024bd1790919060201c565b620007f360201b620025431790919060201c565b6200092260201b6200258d1790919060201c565b9050919050565b60006200083d83836040518060400160405280601a81526020017f536166654d6174683a206469766973696f6e206279207a65726f000000000000815250620009c660201b60201c565b905092915050565b60006200088f83836040518060400160405280601e81526020017f536166654d6174683a207375627472616374696f6e206f766572666c6f77000081525062000a9160201b60201c565b905092915050565b600080831415620008ac57600090506200091c565b6000828402905082848281620008be57fe5b041462000917576040517f08c379a000000000000000000000000000000000000000000000000000000000815260040180806020018281038252602181526020018062005f096021913960400191505060405180910390fd5b809150505b92915050565b600080828401905083811015620009a1576040517f08c379a000000000000000000000000000000000000000000000000000000000815260040180806020018281038252601b8152602001807f536166654d6174683a206164646974696f6e206f766572666c6f77000000000081525060200191505060405180910390fd5b8091505092915050565b6000818310620009bc5781620009be565b825b905092915050565b6000808311829062000a76576040517f08c379a00000000000000000000000000000000000000000000000000000000081526004018080602001828103825283818151815260200191508051906020019080838360005b8381101562000a3a57808201518184015260208101905062000a1d565b50505050905090810190601f16801562000a685780820380516001836020036101000a031916815260200191505b509250505060405180910390fd5b50600083858162000a8357fe5b049050809150509392505050565b600083831115829062000b42576040517f08c379a00000000000000000000000000000000000000000000000000000000081526004018080602001828103825283818151815260200191508051906020019080838360005b8381101562000b0657808201518184015260208101905062000ae9565b50505050905090810190601f16801562000b345780820380516001836020036101000a031916815260200191505b509250505060405180910390fd5b5060008385039050809150509392505050565b612b3680620033d383390190565b6128608062000b736000396000f3fe6080604052600436106101ed5760003560e01c806383f95f131161010d578063d1af0c7d116100a0578063e9fad8ee1161006f578063e9fad8ee146108f4578063ebe2b12b1461090b578063f27841e314610936578063f2fde38b14610986578063feb0b8f5146109d7576101ed565b8063d1af0c7d146107cc578063d4d83ec414610823578063da0ade501461084e578063e98fc508146108c9576101ed565b8063ad2f295e116100dc578063ad2f295e14610731578063b8caedc41461076c578063c8f33c9114610797578063d0e30db0146107c2576101ed565b806383f95f13146105c45780638da5cb5b1461064a5780638e5d8953146106a157806396411538146106cc576101ed565b8063386a952511610185578063715018a611610154578063715018a61461050457806372be0d8b1461051b5780637b0a47ee1461056e57806380faa57d14610599576101ed565b8063386a9525146104325780633d18b9121461045d5780633eaaf86b1461047457806370a082311461049f576101ed565b8063199cb7d8116101c1578063199cb7d81461035a5780631c1f78eb14610385578063224dcd72146103b05780632e1a7d4d146103f7576101ed565b80628cc262146101f25780630700037d1461025757806312045987146102bc57806318160ddd1461032f575b600080fd5b3480156101fe57600080fd5b506102416004803603602081101561021557600080fd5b81019080803573ffffffffffffffffffffffffffffffffffffffff169060200190929190505050610a02565b6040518082815260200191505060405180910390f35b34801561026357600080fd5b506102a66004803603602081101561027a57600080fd5b81019080803573ffffffffffffffffffffffffffffffffffffffff169060200190929190505050610b20565b6040518082815260200191505060405180910390f35b3480156102c857600080fd5b5061030b600480360360208110156102df57600080fd5b81019080803573ffffffffffffffffffffffffffffffffffffffff169060200190929190505050610b38565b60405180848152602001838152602001828152602001935050505060405180910390f35b34801561033b57600080fd5b50610344610b62565b6040518082815260200191505060405180910390f35b34801561036657600080fd5b5061036f610b6c565b6040518082815260200191505060405180910390f35b34801561039157600080fd5b5061039a610b72565b6040518082815260200191505060405180910390f35b3480156103bc57600080fd5b506103f5600480360360408110156103d357600080fd5b8101908080359060200190929190803515159060200190929190505050610b90565b005b34801561040357600080fd5b506104306004803603602081101561041a57600080fd5b8101908080359060200190929190505050610ebe565b005b34801561043e57600080fd5b506104476112f9565b6040518082815260200191505060405180910390f35b34801561046957600080fd5b506104726112ff565b005b34801561048057600080fd5b50610489611635565b6040518082815260200191505060405180910390f35b3480156104ab57600080fd5b506104ee600480360360208110156104c257600080fd5b81019080803573ffffffffffffffffffffffffffffffffffffffff16906020019092919050505061163b565b6040518082815260200191505060405180910390f35b34801561051057600080fd5b50610519611684565b005b34801561052757600080fd5b506105546004803603602081101561053e57600080fd5b810190808035906020019092919050505061180c565b604051808215151515815260200191505060405180910390f35b34801561057a57600080fd5b5061058361182c565b6040518082815260200191505060405180910390f35b3480156105a557600080fd5b506105ae611832565b6040518082815260200191505060405180910390f35b3480156105d057600080fd5b50610648600480360360208110156105e757600080fd5b810190808035906020019064010000000081111561060457600080fd5b82018360208201111561061657600080fd5b8035906020019184600183028401116401000000008311171561063857600080fd5b9091929391929390505050611845565b005b34801561065657600080fd5b5061065f611a42565b604051808273ffffffffffffffffffffffffffffffffffffffff1673ffffffffffffffffffffffffffffffffffffffff16815260200191505060405180910390f35b3480156106ad57600080fd5b506106b6611a6b565b6040518082815260200191505060405180910390f35b3480156106d857600080fd5b5061071b600480360360208110156106ef57600080fd5b81019080803573ffffffffffffffffffffffffffffffffffffffff169060200190929190505050611af9565b6040518082815260200191505060405180910390f35b34801561073d57600080fd5b5061076a6004803603602081101561075457600080fd5b8101908080359060200190929190505050611b11565b005b34801561077857600080fd5b50610781611c1d565b6040518082815260200191505060405180910390f35b3480156107a357600080fd5b506107ac611c23565b6040518082815260200191505060405180910390f35b6107ca611c29565b005b3480156107d857600080fd5b506107e1611f29565b604051808273ffffffffffffffffffffffffffffffffffffffff1673ffffffffffffffffffffffffffffffffffffffff16815260200191505060405180910390f35b34801561082f57600080fd5b50610838611f4f565b6040518082815260200191505060405180910390f35b34801561085a57600080fd5b506108876004803603602081101561087157600080fd5b8101908080359060200190929190505050611f55565b604051808273ffffffffffffffffffffffffffffffffffffffff1673ffffffffffffffffffffffffffffffffffffffff16815260200191505060405180910390f35b3480156108d557600080fd5b506108de611f88565b6040518082815260200191505060405180910390f35b34801561090057600080fd5b50610909611f8e565b005b34801561091757600080fd5b50610920611fe0565b6040518082815260200191505060405180910390f35b61096c6004803603604081101561094c57600080fd5b810190808035906020019092919080359060200190929190505050611fe6565b604051808215151515815260200191505060405180910390f35b34801561099257600080fd5b506109d5600480360360208110156109a957600080fd5b81019080803573ffffffffffffffffffffffffffffffffffffffff169060200190929190505050612260565b005b3480156109e357600080fd5b506109ec61246d565b6040518082815260200191505060405180910390f35b6000610b19600960008473ffffffffffffffffffffffffffffffffffffffff1673ffffffffffffffffffffffffffffffffffffffff16815260200190815260200160002054610b0b670de0b6b3a7640000610afd610aaf600860008973ffffffffffffffffffffffffffffffffffffffff1673ffffffffffffffffffffffffffffffffffffffff16815260200190815260200160002054610aa1611a6b565b61247390919063ffffffff16565b601260008973ffffffffffffffffffffffffffffffffffffffff1673ffffffffffffffffffffffffffffffffffffffff168152602001908152602001600020546124bd90919063ffffffff16565b61254390919063ffffffff16565b61258d90919063ffffffff16565b9050919050565b60096020528060005260406000206000915090505481565b600e6020528060005260406000206000915090508060000154908060010154908060020154905083565b6000601154905090565b600d5481565b6000610b8b6005546004546124bd90919063ffffffff16565b905090565b610b98612615565b73ffffffffffffffffffffffffffffffffffffffff166000809054906101000a900473ffffffffffffffffffffffffffffffffffffffff1673ffffffffffffffffffffffffffffffffffffffff1614610c59576040517f08c379a00000000000000000000000000000000000000000000000000000000081526004018080602001828103825260208152602001807f4f776e61626c653a2063616c6c6572206973206e6f7420746865206f776e657281525060200191505060405180910390fd5b60026001541415610cd2576040517f08c379a000000000000000000000000000000000000000000000000000000000815260040180806020018281038252601f8152602001807f5265656e7472616e637947756172643a207265656e7472616e742063616c6c0081525060200191505060405180910390fd5b60026001819055508160011515600f600083815260200190815260200160002060009054906101000a900460ff16151514610d0c57600080fd5b6000600f600085815260200190815260200160002060006101000a81548160ff021916908315150217905550600115158215151415610e6f5760006010600085815260200190815260200160002060009054906101000a900473ffffffffffffffffffffffffffffffffffffffff1690506000600e60008373ffffffffffffffffffffffffffffffffffffffff1673ffffffffffffffffffffffffffffffffffffffff16815260200190815260200160002060020154905060008273ffffffffffffffffffffffffffffffffffffffff168260405180600001905060006040518083038185875af1925050503d8060008114610e24576040519150601f19603f3d011682016040523d82523d6000602084013e610e29565b606091505b505090508015610e6b577ff344f7066029d64ba9bd14e0c295fcf9476e13954beded9f5cf5f446da2e7553866040518082815260200191505060405180910390a15b5050505b7fb96a745cc9b77f50219b8e380073ef1912e87ae66ce099a72ce1029259093ff1838360405180838152602001821515151581526020019250505060405180910390a150600180819055505050565b60026001541415610f37576040517f08c379a000000000000000000000000000000000000000000000000000000000815260040180806020018281038252601f8152602001807f5265656e7472616e637947756172643a207265656e7472616e742063616c6c0081525060200191505060405180910390fd5b6002600181905550336000601260008373ffffffffffffffffffffffffffffffffffffffff1673ffffffffffffffffffffffffffffffffffffffff1681526020019081526020016000205411610f8c57600080fd5b33610f95611a6b565b600781905550610fa3611832565b600681905550600073ffffffffffffffffffffffffffffffffffffffff168173ffffffffffffffffffffffffffffffffffffffff161461107057610fe681610a02565b600960008373ffffffffffffffffffffffffffffffffffffffff1673ffffffffffffffffffffffffffffffffffffffff16815260200190815260200160002081905550600754600860008373ffffffffffffffffffffffffffffffffffffffff1673ffffffffffffffffffffffffffffffffffffffff168152602001908152602001600020819055505b600083116110e6576040517f08c379a00000000000000000000000000000000000000000000000000000000081526004018080602001828103825260118152602001807f43616e6e6f74207769746864726177203000000000000000000000000000000081525060200191505060405180910390fd5b601260003373ffffffffffffffffffffffffffffffffffffffff1673ffffffffffffffffffffffffffffffffffffffff1681526020019081526020016000205483111561117e576040517f08c379a00000000000000000000000000000000000000000000000000000000081526004018080602001828103825260278152602001806127bd6027913960400191505060405180910390fd5b60003373ffffffffffffffffffffffffffffffffffffffff168460405180600001905060006040518083038185875af1925050503d80600081146111de576040519150601f19603f3d011682016040523d82523d6000602084013e6111e3565b606091505b5050905080156112ec576112028460115461247390919063ffffffff16565b60118190555061125a84601260003373ffffffffffffffffffffffffffffffffffffffff1673ffffffffffffffffffffffffffffffffffffffff1681526020019081526020016000205461247390919063ffffffff16565b601260003373ffffffffffffffffffffffffffffffffffffffff1673ffffffffffffffffffffffffffffffffffffffff168152602001908152602001600020819055503373ffffffffffffffffffffffffffffffffffffffff167f7084f5476618d8e60b11ef0d7d3f06914655adb8793e28ff7f018d4c76d505d5856040518082815260200191505060405180910390a25b5050506001808190555050565b60055481565b60026001541415611378576040517f08c379a000000000000000000000000000000000000000000000000000000000815260040180806020018281038252601f8152602001807f5265656e7472616e637947756172643a207265656e7472616e742063616c6c0081525060200191505060405180910390fd5b600260018190555033611389611a6b565b600781905550611397611832565b600681905550600073ffffffffffffffffffffffffffffffffffffffff168173ffffffffffffffffffffffffffffffffffffffff1614611464576113da81610a02565b600960008373ffffffffffffffffffffffffffffffffffffffff1673ffffffffffffffffffffffffffffffffffffffff16815260200190815260200160002081905550600754600860008373ffffffffffffffffffffffffffffffffffffffff1673ffffffffffffffffffffffffffffffffffffffff168152602001908152602001600020819055505b6000600960003373ffffffffffffffffffffffffffffffffffffffff1673ffffffffffffffffffffffffffffffffffffffff168152602001908152602001600020549050600081111561162a576000600960003373ffffffffffffffffffffffffffffffffffffffff1673ffffffffffffffffffffffffffffffffffffffff16815260200190815260200160002081905550600260009054906101000a900473ffffffffffffffffffffffffffffffffffffffff1673ffffffffffffffffffffffffffffffffffffffff1663a9059cbb33836040518363ffffffff1660e01b8152600401808373ffffffffffffffffffffffffffffffffffffffff1673ffffffffffffffffffffffffffffffffffffffff16815260200182815260200192505050602060405180830381600087803b15801561159f57600080fd5b505af11580156115b3573d6000803e3d6000fd5b505050506040513d60208110156115c957600080fd5b8101908080519060200190929190505050503373ffffffffffffffffffffffffffffffffffffffff167fe2403640ba68fed3a2f88b7557551d1993f84b99bb10ff833f0cf8db0c5e0486826040518082815260200191505060405180910390a25b505060018081905550565b60115481565b6000601260008373ffffffffffffffffffffffffffffffffffffffff1673ffffffffffffffffffffffffffffffffffffffff168152602001908152602001600020549050919050565b61168c612615565b73ffffffffffffffffffffffffffffffffffffffff166000809054906101000a900473ffffffffffffffffffffffffffffffffffffffff1673ffffffffffffffffffffffffffffffffffffffff161461174d576040517f08c379a00000000000000000000000000000000000000000000000000000000081526004018080602001828103825260208152602001807f4f776e61626c653a2063616c6c6572206973206e6f7420746865206f776e657281525060200191505060405180910390fd5b600073ffffffffffffffffffffffffffffffffffffffff166000809054906101000a900473ffffffffffffffffffffffffffffffffffffffff1673ffffffffffffffffffffffffffffffffffffffff167f8be0079c531659141344cd1fd0a4f28419497f9722a3daafe3b4186f6b6457e060405160405180910390a360008060006101000a81548173ffffffffffffffffffffffffffffffffffffffff021916908373ffffffffffffffffffffffffffffffffffffffff160217905550565b600f6020528060005260406000206000915054906101000a900460ff1681565b60045481565b60006118404260035461261d565b905090565b3342600e60008373ffffffffffffffffffffffffffffffffffffffff1673ffffffffffffffffffffffffffffffffffffffff16815260200190815260200160002060010154101561189557600080fd5b3360011515600f6000600e60008573ffffffffffffffffffffffffffffffffffffffff1673ffffffffffffffffffffffffffffffffffffffff16815260200190815260200160002060000154815260200190815260200160002060009054906101000a900460ff161515141561190a57600080fd5b6001600f6000600e60003373ffffffffffffffffffffffffffffffffffffffff1673ffffffffffffffffffffffffffffffffffffffff16815260200190815260200160002060000154815260200190815260200160002060006101000a81548160ff0219169083151502179055503373ffffffffffffffffffffffffffffffffffffffff167fcb1da10e4831d2a84161b0f41caa59da3657534cb84274abc6284544562beaea600e60003373ffffffffffffffffffffffffffffffffffffffff1673ffffffffffffffffffffffffffffffffffffffff16815260200190815260200160002060000154868660405180848152602001806020018281038252848482818152602001925080828437600081840152601f19601f82011690508083019250505094505050505060405180910390a250505050565b60008060009054906101000a900473ffffffffffffffffffffffffffffffffffffffff16905090565b6000806011541415611a81576007549050611af6565b611af3611ae2601154611ad4670de0b6b3a7640000611ac6600454611ab8600654611aaa611832565b61247390919063ffffffff16565b6124bd90919063ffffffff16565b6124bd90919063ffffffff16565b61254390919063ffffffff16565b60075461258d90919063ffffffff16565b90505b90565b60086020528060005260406000206000915090505481565b611b19612615565b73ffffffffffffffffffffffffffffffffffffffff166000809054906101000a900473ffffffffffffffffffffffffffffffffffffffff1673ffffffffffffffffffffffffffffffffffffffff1614611bda576040517f08c379a00000000000000000000000000000000000000000000000000000000081526004018080602001828103825260208152602001807f4f776e61626c653a2063616c6c6572206973206e6f7420746865206f776e657281525060200191505060405180910390fd5b80600a819055507f7a2dda3b435fdfcb1f20bf80ab6e86aa62b385e6a8a70e6e829e88d1a3513d99600a546040518082815260200191505060405180910390a150565b600c5481565b60065481565b60026001541415611ca2576040517f08c379a000000000000000000000000000000000000000000000000000000000815260040180806020018281038252601f8152602001807f5265656e7472616e637947756172643a207265656e7472616e742063616c6c0081525060200191505060405180910390fd5b600260018190555033611cb3611a6b565b600781905550611cc1611832565b600681905550600073ffffffffffffffffffffffffffffffffffffffff168173ffffffffffffffffffffffffffffffffffffffff1614611d8e57611d0481610a02565b600960008373ffffffffffffffffffffffffffffffffffffffff1673ffffffffffffffffffffffffffffffffffffffff16815260200190815260200160002081905550600754600860008373ffffffffffffffffffffffffffffffffffffffff1673ffffffffffffffffffffffffffffffffffffffff168152602001908152602001600020819055505b60003411611e04576040517f08c379a00000000000000000000000000000000000000000000000000000000081526004018080602001828103825260108152602001807f43616e6e6f74206465706f73697420300000000000000000000000000000000081525060200191505060405180910390fd5b611e193460115461258d90919063ffffffff16565b601181905550611e7134601260003373ffffffffffffffffffffffffffffffffffffffff1673ffffffffffffffffffffffffffffffffffffffff1681526020019081526020016000205461258d90919063ffffffff16565b601260003373ffffffffffffffffffffffffffffffffffffffff1673ffffffffffffffffffffffffffffffffffffffff16815260200190815260200160002081905550611ecb600c5460115461247390919063ffffffff16565b600d819055503373ffffffffffffffffffffffffffffffffffffffff167f2da466a7b24304f47e87fa2e1e5a81b9831ce54fec19055ce277ca2f39ba42c4346040518082815260200191505060405180910390a25060018081905550565b600260009054906101000a900473ffffffffffffffffffffffffffffffffffffffff1681565b60075481565b60106020528060005260406000206000915054906101000a900473ffffffffffffffffffffffffffffffffffffffff1681565b600a5481565b611fd6601260003373ffffffffffffffffffffffffffffffffffffffff1673ffffffffffffffffffffffffffffffffffffffff16815260200190815260200160002054610ebe565b611fde6112ff565b565b60035481565b60006120386301e1338061202a606461201c8761200e600a54896124bd90919063ffffffff16565b6124bd90919063ffffffff16565b61254390919063ffffffff16565b61254390919063ffffffff16565b8034101561204557600080fd5b8362127500811015801561205d57506301e133808111155b61206657600080fd5b83600d5481111561207657600080fd5b600b54600e60003373ffffffffffffffffffffffffffffffffffffffff1673ffffffffffffffffffffffffffffffffffffffff168152602001908152602001600020600001819055506120d2864261258d90919063ffffffff16565b600e60003373ffffffffffffffffffffffffffffffffffffffff1673ffffffffffffffffffffffffffffffffffffffff1681526020019081526020016000206001018190555084600e60003373ffffffffffffffffffffffffffffffffffffffff1673ffffffffffffffffffffffffffffffffffffffff168152602001908152602001600020600201819055503360106000600b54815260200190815260200160002060006101000a81548173ffffffffffffffffffffffffffffffffffffffff021916908373ffffffffffffffffffffffffffffffffffffffff160217905550600b600081548092919060010191905055506121da85600c5461258d90919063ffffffff16565b600c819055506121f7600c5460115461247390919063ffffffff16565b600d819055503373ffffffffffffffffffffffffffffffffffffffff167fde480a9a0580db096fbff54be5cd7a5492c681a07ab1b557cd00a93dad81d3e58787604051808381526020018281526020019250505060405180910390a26001935050505092915050565b612268612615565b73ffffffffffffffffffffffffffffffffffffffff166000809054906101000a900473ffffffffffffffffffffffffffffffffffffffff1673ffffffffffffffffffffffffffffffffffffffff1614612329576040517f08c379a00000000000000000000000000000000000000000000000000000000081526004018080602001828103825260208152602001807f4f776e61626c653a2063616c6c6572206973206e6f7420746865206f776e657281525060200191505060405180910390fd5b600073ffffffffffffffffffffffffffffffffffffffff168173ffffffffffffffffffffffffffffffffffffffff1614156123af576040517f08c379a00000000000000000000000000000000000000000000000000000000081526004018080602001828103825260268152602001806127e46026913960400191505060405180910390fd5b8073ffffffffffffffffffffffffffffffffffffffff166000809054906101000a900473ffffffffffffffffffffffffffffffffffffffff1673ffffffffffffffffffffffffffffffffffffffff167f8be0079c531659141344cd1fd0a4f28419497f9722a3daafe3b4186f6b6457e060405160405180910390a3806000806101000a81548173ffffffffffffffffffffffffffffffffffffffff021916908373ffffffffffffffffffffffffffffffffffffffff16021790555050565b600b5481565b60006124b583836040518060400160405280601e81526020017f536166654d6174683a207375627472616374696f6e206f766572666c6f770000815250612636565b905092915050565b6000808314156124d0576000905061253d565b60008284029050828482816124e157fe5b0414612538576040517f08c379a000000000000000000000000000000000000000000000000000000000815260040180806020018281038252602181526020018061280a6021913960400191505060405180910390fd5b809150505b92915050565b600061258583836040518060400160405280601a81526020017f536166654d6174683a206469766973696f6e206279207a65726f0000000000008152506126f6565b905092915050565b60008082840190508381101561260b576040517f08c379a000000000000000000000000000000000000000000000000000000000815260040180806020018281038252601b8152602001807f536166654d6174683a206164646974696f6e206f766572666c6f77000000000081525060200191505060405180910390fd5b8091505092915050565b600033905090565b600081831061262c578161262e565b825b905092915050565b60008383111582906126e3576040517f08c379a00000000000000000000000000000000000000000000000000000000081526004018080602001828103825283818151815260200191508051906020019080838360005b838110156126a857808201518184015260208101905061268d565b50505050905090810190601f1680156126d55780820380516001836020036101000a031916815260200191505b509250505060405180910390fd5b5060008385039050809150509392505050565b600080831182906127a2576040517f08c379a00000000000000000000000000000000000000000000000000000000081526004018080602001828103825283818151815260200191508051906020019080838360005b8381101561276757808201518184015260208101905061274c565b50505050905090810190601f1680156127945780820380516001836020036101000a031916815260200191505b509250505060405180910390fd5b5060008385816127ae57fe5b04905080915050939250505056fe43616e6e6f74207769746864726177206d6f7265207468616e20796f75206465706f73697465644f776e61626c653a206e6577206f776e657220697320746865207a65726f2061646472657373536166654d6174683a206d756c7469706c69636174696f6e206f766572666c6f77a2646970667358221220fdc9a22aff6e15811f1b2b78b69390bbed2e84801da432a6f235747c1e2224d964736f6c6343000602003360806040526040518060400160405280600b81526020017f517561736172546f6b656e0000000000000000000000000000000000000000008152506040518060400160405280600381526020017f5153520000000000000000000000000000000000000000000000000000000000815250818181600490805190602001906200008a9291906200034b565b508060059080519060200190620000a39291906200034b565b506012600660006101000a81548160ff021916908360ff16021790555050506000600660016101000a81548160ff021916908315150217905550620001016000801b620000f5620001b560201b60201c565b620001bd60201b60201c565b6200015760405180807f4d494e5445525f524f4c45000000000000000000000000000000000000000000815250600b01905060405180910390206200014b620001b560201b60201c565b620001bd60201b60201c565b620001ad60405180807f5041555345525f524f4c45000000000000000000000000000000000000000000815250600b0190506040518091039020620001a1620001b560201b60201c565b620001bd60201b60201c565b5050620003fa565b600033905090565b620001cf8282620001d360201b60201c565b5050565b62000201816000808581526020019081526020016000206000016200027660201b620020e21790919060201c565b15620002725762000217620001b560201b60201c565b73ffffffffffffffffffffffffffffffffffffffff168173ffffffffffffffffffffffffffffffffffffffff16837f2f8788117e7eff1d82e926ec794901d17c78024a50270940304540a733656f0d60405160405180910390a45b5050565b6000620002a6836000018373ffffffffffffffffffffffffffffffffffffffff1660001b620002ae60201b60201c565b905092915050565b6000620002c283836200032860201b60201c565b6200031d57826000018290806001815401808255809150506001900390600052602060002001600090919091909150558260000180549050836001016000848152602001908152602001600020819055506001905062000322565b600090505b92915050565b600080836001016000848152602001908152602001600020541415905092915050565b828054600181600116156101000203166002900490600052602060002090601f016020900481019282601f106200038e57805160ff1916838001178555620003bf565b82800160010185558215620003bf579182015b82811115620003be578251825591602001919060010190620003a1565b5b509050620003ce9190620003d2565b5090565b620003f791905b80821115620003f3576000816000905550600101620003d9565b5090565b90565b61272c806200040a6000396000f3fe608060405234801561001057600080fd5b50600436106101a95760003560e01c806370a08231116100f9578063a457c2d711610097578063d539139311610071578063d539139314610888578063d547741f146108a6578063dd62ed3e146108f4578063e63ab1e91461096c576101a9565b8063a457c2d71461077a578063a9059cbb146107e0578063ca15c87314610846576101a9565b80639010d07c116100d35780639010d07c146105fb57806391d148541461067357806395d89b41146106d9578063a217fddf1461075c576101a9565b806370a082311461054b57806379cc6790146105a35780638456cb59146105f1576101a9565b8063313ce567116101665780633f4ba83a116101405780633f4ba83a146104a357806340c10f19146104ad57806342966c68146104fb5780635c975abb14610529576101a9565b8063313ce567146103cb57806336568abe146103ef578063395093511461043d576101a9565b806306fdde03146101ae578063095ea7b31461023157806318160ddd1461029757806323b872dd146102b5578063248a9ca31461033b5780632f2ff15d1461037d575b600080fd5b6101b661098a565b6040518080602001828103825283818151815260200191508051906020019080838360005b838110156101f65780820151818401526020810190506101db565b50505050905090810190601f1680156102235780820380516001836020036101000a031916815260200191505b509250505060405180910390f35b61027d6004803603604081101561024757600080fd5b81019080803573ffffffffffffffffffffffffffffffffffffffff16906020019092919080359060200190929190505050610a2c565b604051808215151515815260200191505060405180910390f35b61029f610a4a565b6040518082815260200191505060405180910390f35b610321600480360360608110156102cb57600080fd5b81019080803573ffffffffffffffffffffffffffffffffffffffff169060200190929190803573ffffffffffffffffffffffffffffffffffffffff16906020019092919080359060200190929190505050610a54565b604051808215151515815260200191505060405180910390f35b6103676004803603602081101561035157600080fd5b8101908080359060200190929190505050610b2d565b6040518082815260200191505060405180910390f35b6103c96004803603604081101561039357600080fd5b8101908080359060200190929190803573ffffffffffffffffffffffffffffffffffffffff169060200190929190505050610b4c565b005b6103d3610bd5565b604051808260ff1660ff16815260200191505060405180910390f35b61043b6004803603604081101561040557600080fd5b8101908080359060200190929190803573ffffffffffffffffffffffffffffffffffffffff169060200190929190505050610bec565b005b6104896004803603604081101561045357600080fd5b81019080803573ffffffffffffffffffffffffffffffffffffffff16906020019092919080359060200190929190505050610c85565b604051808215151515815260200191505060405180910390f35b6104ab610d38565b005b6104f9600480360360408110156104c357600080fd5b81019080803573ffffffffffffffffffffffffffffffffffffffff16906020019092919080359060200190929190505050610ddd565b005b6105276004803603602081101561051157600080fd5b8101908080359060200190929190505050610e86565b005b610531610e9a565b604051808215151515815260200191505060405180910390f35b61058d6004803603602081101561056157600080fd5b81019080803573ffffffffffffffffffffffffffffffffffffffff169060200190929190505050610eb1565b6040518082815260200191505060405180910390f35b6105ef600480360360408110156105b957600080fd5b81019080803573ffffffffffffffffffffffffffffffffffffffff16906020019092919080359060200190929190505050610efa565b005b6105f9610f5c565b005b6106316004803603604081101561061157600080fd5b810190808035906020019092919080359060200190929190505050611001565b604051808273ffffffffffffffffffffffffffffffffffffffff1673ffffffffffffffffffffffffffffffffffffffff16815260200191505060405180910390f35b6106bf6004803603604081101561068957600080fd5b8101908080359060200190929190803573ffffffffffffffffffffffffffffffffffffffff169060200190929190505050611032565b604051808215151515815260200191505060405180910390f35b6106e1611063565b6040518080602001828103825283818151815260200191508051906020019080838360005b83811015610721578082015181840152602081019050610706565b50505050905090810190601f16801561074e5780820380516001836020036101000a031916815260200191505b509250505060405180910390f35b610764611105565b6040518082815260200191505060405180910390f35b6107c66004803603604081101561079057600080fd5b81019080803573ffffffffffffffffffffffffffffffffffffffff1690602001909291908035906020019092919050505061110c565b604051808215151515815260200191505060405180910390f35b61082c600480360360408110156107f657600080fd5b81019080803573ffffffffffffffffffffffffffffffffffffffff169060200190929190803590602001909291905050506111d9565b604051808215151515815260200191505060405180910390f35b6108726004803603602081101561085c57600080fd5b81019080803590602001909291905050506111f7565b6040518082815260200191505060405180910390f35b61089061121d565b6040518082815260200191505060405180910390f35b6108f2600480360360408110156108bc57600080fd5b8101908080359060200190929190803573ffffffffffffffffffffffffffffffffffffffff169060200190929190505050611256565b005b6109566004803603604081101561090a57600080fd5b81019080803573ffffffffffffffffffffffffffffffffffffffff169060200190929190803573ffffffffffffffffffffffffffffffffffffffff1690602001909291905050506112df565b6040518082815260200191505060405180910390f35b610974611366565b6040518082815260200191505060405180910390f35b606060048054600181600116156101000203166002900480601f016020809104026020016040519081016040528092919081815260200182805460018160011615610100020316600290048015610a225780601f106109f757610100808354040283529160200191610a22565b820191906000526020600020905b815481529060010190602001808311610a0557829003601f168201915b5050505050905090565b6000610a40610a3961139f565b84846113a7565b6001905092915050565b6000600354905090565b6000610a6184848461159e565b610b2284610a6d61139f565b610b1d8560405180606001604052806028815260200161255660289139600260008b73ffffffffffffffffffffffffffffffffffffffff1673ffffffffffffffffffffffffffffffffffffffff1681526020019081526020016000206000610ad361139f565b73ffffffffffffffffffffffffffffffffffffffff1673ffffffffffffffffffffffffffffffffffffffff168152602001908152602001600020546118639092919063ffffffff16565b6113a7565b600190509392505050565b6000806000838152602001908152602001600020600201549050919050565b610b7260008084815260200190815260200160002060020154610b6d61139f565b611032565b610bc7576040517f08c379a000000000000000000000000000000000000000000000000000000000815260040180806020018281038252602f815260200180612454602f913960400191505060405180910390fd5b610bd18282611923565b5050565b6000600660009054906101000a900460ff16905090565b610bf461139f565b73ffffffffffffffffffffffffffffffffffffffff168173ffffffffffffffffffffffffffffffffffffffff1614610c77576040517f08c379a000000000000000000000000000000000000000000000000000000000815260040180806020018281038252602f81526020018061269e602f913960400191505060405180910390fd5b610c8182826119b6565b5050565b6000610d2e610c9261139f565b84610d298560026000610ca361139f565b73ffffffffffffffffffffffffffffffffffffffff1673ffffffffffffffffffffffffffffffffffffffff16815260200190815260200160002060008973ffffffffffffffffffffffffffffffffffffffff1673ffffffffffffffffffffffffffffffffffffffff16815260200190815260200160002054611a4990919063ffffffff16565b6113a7565b6001905092915050565b610d7e60405180807f5041555345525f524f4c45000000000000000000000000000000000000000000815250600b0190506040518091039020610d7961139f565b611032565b610dd3576040517f08c379a00000000000000000000000000000000000000000000000000000000081526004018080602001828103825260398152602001806124a56039913960400191505060405180910390fd5b610ddb611ad1565b565b610e2360405180807f4d494e5445525f524f4c45000000000000000000000000000000000000000000815250600b0190506040518091039020610e1e61139f565b611032565b610e78576040517f08c379a000000000000000000000000000000000000000000000000000000000815260040180806020018281038252603681526020018061257e6036913960400191505060405180910390fd5b610e828282611bda565b5050565b610e97610e9161139f565b82611da3565b50565b6000600660019054906101000a900460ff16905090565b6000600160008373ffffffffffffffffffffffffffffffffffffffff1673ffffffffffffffffffffffffffffffffffffffff168152602001908152602001600020549050919050565b6000610f39826040518060600160405280602481526020016125b460249139610f2a86610f2561139f565b6112df565b6118639092919063ffffffff16565b9050610f4d83610f4761139f565b836113a7565b610f578383611da3565b505050565b610fa260405180807f5041555345525f524f4c45000000000000000000000000000000000000000000815250600b0190506040518091039020610f9d61139f565b611032565b610ff7576040517f08c379a00000000000000000000000000000000000000000000000000000000081526004018080602001828103825260378152602001806126426037913960400191505060405180910390fd5b610fff611f69565b565b600061102a8260008086815260200190815260200160002060000161207390919063ffffffff16565b905092915050565b600061105b8260008086815260200190815260200160002060000161208d90919063ffffffff16565b905092915050565b606060058054600181600116156101000203166002900480601f0160208091040260200160405190810160405280929190818152602001828054600181600116156101000203166002900480156110fb5780601f106110d0576101008083540402835291602001916110fb565b820191906000526020600020905b8154815290600101906020018083116110de57829003601f168201915b5050505050905090565b6000801b81565b60006111cf61111961139f565b846111ca85604051806060016040528060258152602001612679602591396002600061114361139f565b73ffffffffffffffffffffffffffffffffffffffff1673ffffffffffffffffffffffffffffffffffffffff16815260200190815260200160002060008a73ffffffffffffffffffffffffffffffffffffffff1673ffffffffffffffffffffffffffffffffffffffff168152602001908152602001600020546118639092919063ffffffff16565b6113a7565b6001905092915050565b60006111ed6111e661139f565b848461159e565b6001905092915050565b60006112166000808481526020019081526020016000206000016120bd565b9050919050565b60405180807f4d494e5445525f524f4c45000000000000000000000000000000000000000000815250600b019050604051809103902081565b61127c6000808481526020019081526020016000206002015461127761139f565b611032565b6112d1576040517f08c379a00000000000000000000000000000000000000000000000000000000081526004018080602001828103825260308152602001806125266030913960400191505060405180910390fd5b6112db82826119b6565b5050565b6000600260008473ffffffffffffffffffffffffffffffffffffffff1673ffffffffffffffffffffffffffffffffffffffff16815260200190815260200160002060008373ffffffffffffffffffffffffffffffffffffffff1673ffffffffffffffffffffffffffffffffffffffff16815260200190815260200160002054905092915050565b60405180807f5041555345525f524f4c45000000000000000000000000000000000000000000815250600b019050604051809103902081565b600033905090565b600073ffffffffffffffffffffffffffffffffffffffff168373ffffffffffffffffffffffffffffffffffffffff16141561142d576040517f08c379a000000000000000000000000000000000000000000000000000000000815260040180806020018281038252602481526020018061261e6024913960400191505060405180910390fd5b600073ffffffffffffffffffffffffffffffffffffffff168273ffffffffffffffffffffffffffffffffffffffff1614156114b3576040517f08c379a00000000000000000000000000000000000000000000000000000000081526004018080602001828103825260228152602001806124de6022913960400191505060405180910390fd5b80600260008573ffffffffffffffffffffffffffffffffffffffff1673ffffffffffffffffffffffffffffffffffffffff16815260200190815260200160002060008473ffffffffffffffffffffffffffffffffffffffff1673ffffffffffffffffffffffffffffffffffffffff168152602001908152602001600020819055508173ffffffffffffffffffffffffffffffffffffffff168373ffffffffffffffffffffffffffffffffffffffff167f8c5be1e5ebec7d5bd14f71427d1e84f3dd0314c0f7b2291e5b200ac8c7c3b925836040518082815260200191505060405180910390a3505050565b600073ffffffffffffffffffffffffffffffffffffffff168373ffffffffffffffffffffffffffffffffffffffff161415611624576040517f08c379a00000000000000000000000000000000000000000000000000000000081526004018080602001828103825260258152602001806125f96025913960400191505060405180910390fd5b600073ffffffffffffffffffffffffffffffffffffffff168273ffffffffffffffffffffffffffffffffffffffff1614156116aa576040517f08c379a00000000000000000000000000000000000000000000000000000000081526004018080602001828103825260238152602001806124316023913960400191505060405180910390fd5b6116b58383836120d2565b6117218160405180606001604052806026815260200161250060269139600160008773ffffffffffffffffffffffffffffffffffffffff1673ffffffffffffffffffffffffffffffffffffffff168152602001908152602001600020546118639092919063ffffffff16565b600160008573ffffffffffffffffffffffffffffffffffffffff1673ffffffffffffffffffffffffffffffffffffffff168152602001908152602001600020819055506117b681600160008573ffffffffffffffffffffffffffffffffffffffff1673ffffffffffffffffffffffffffffffffffffffff16815260200190815260200160002054611a4990919063ffffffff16565b600160008473ffffffffffffffffffffffffffffffffffffffff1673ffffffffffffffffffffffffffffffffffffffff168152602001908152602001600020819055508173ffffffffffffffffffffffffffffffffffffffff168373ffffffffffffffffffffffffffffffffffffffff167fddf252ad1be2c89b69c2b068fc378daa952ba7f163c4a11628f55a4df523b3ef836040518082815260200191505060405180910390a3505050565b6000838311158290611910576040517f08c379a00000000000000000000000000000000000000000000000000000000081526004018080602001828103825283818151815260200191508051906020019080838360005b838110156118d55780820151818401526020810190506118ba565b50505050905090810190601f1680156119025780820380516001836020036101000a031916815260200191505b509250505060405180910390fd5b5060008385039050809150509392505050565b61194a816000808581526020019081526020016000206000016120e290919063ffffffff16565b156119b25761195761139f565b73ffffffffffffffffffffffffffffffffffffffff168173ffffffffffffffffffffffffffffffffffffffff16837f2f8788117e7eff1d82e926ec794901d17c78024a50270940304540a733656f0d60405160405180910390a45b5050565b6119dd8160008085815260200190815260200160002060000161211290919063ffffffff16565b15611a45576119ea61139f565b73ffffffffffffffffffffffffffffffffffffffff168173ffffffffffffffffffffffffffffffffffffffff16837ff6391f5c32d9c69d2a47ea670b442974b53935d1edc7fd64eb21e047a839171b60405160405180910390a45b5050565b600080828401905083811015611ac7576040517f08c379a000000000000000000000000000000000000000000000000000000000815260040180806020018281038252601b8152602001807f536166654d6174683a206164646974696f6e206f766572666c6f77000000000081525060200191505060405180910390fd5b8091505092915050565b600660019054906101000a900460ff16611b53576040517f08c379a00000000000000000000000000000000000000000000000000000000081526004018080602001828103825260148152602001807f5061757361626c653a206e6f742070617573656400000000000000000000000081525060200191505060405180910390fd5b6000600660016101000a81548160ff0219169083151502179055507f5db9ee0a495bf2e6ff9c91a7834c1ba4fdd244a5e8aa4e537bd38aeae4b073aa611b9761139f565b604051808273ffffffffffffffffffffffffffffffffffffffff1673ffffffffffffffffffffffffffffffffffffffff16815260200191505060405180910390a1565b600073ffffffffffffffffffffffffffffffffffffffff168273ffffffffffffffffffffffffffffffffffffffff161415611c7d576040517f08c379a000000000000000000000000000000000000000000000000000000000815260040180806020018281038252601f8152602001807f45524332303a206d696e7420746f20746865207a65726f20616464726573730081525060200191505060405180910390fd5b611c89600083836120d2565b611c9e81600354611a4990919063ffffffff16565b600381905550611cf681600160008573ffffffffffffffffffffffffffffffffffffffff1673ffffffffffffffffffffffffffffffffffffffff16815260200190815260200160002054611a4990919063ffffffff16565b600160008473ffffffffffffffffffffffffffffffffffffffff1673ffffffffffffffffffffffffffffffffffffffff168152602001908152602001600020819055508173ffffffffffffffffffffffffffffffffffffffff16600073ffffffffffffffffffffffffffffffffffffffff167fddf252ad1be2c89b69c2b068fc378daa952ba7f163c4a11628f55a4df523b3ef836040518082815260200191505060405180910390a35050565b600073ffffffffffffffffffffffffffffffffffffffff168273ffffffffffffffffffffffffffffffffffffffff161415611e29576040517f08c379a00000000000000000000000000000000000000000000000000000000081526004018080602001828103825260218152602001806125d86021913960400191505060405180910390fd5b611e35826000836120d2565b611ea18160405180606001604052806022815260200161248360229139600160008673ffffffffffffffffffffffffffffffffffffffff1673ffffffffffffffffffffffffffffffffffffffff168152602001908152602001600020546118639092919063ffffffff16565b600160008473ffffffffffffffffffffffffffffffffffffffff1673ffffffffffffffffffffffffffffffffffffffff16815260200190815260200160002081905550611ef98160035461214290919063ffffffff16565b600381905550600073ffffffffffffffffffffffffffffffffffffffff168273ffffffffffffffffffffffffffffffffffffffff167fddf252ad1be2c89b69c2b068fc378daa952ba7f163c4a11628f55a4df523b3ef836040518082815260200191505060405180910390a35050565b600660019054906101000a900460ff1615611fec576040517f08c379a00000000000000000000000000000000000000000000000000000000081526004018080602001828103825260108152602001807f5061757361626c653a207061757365640000000000000000000000000000000081525060200191505060405180910390fd5b6001600660016101000a81548160ff0219169083151502179055507f62e78cea01bee320cd4e420270b5ea74000d11b0c9f74754ebdbfc544b05a25861203061139f565b604051808273ffffffffffffffffffffffffffffffffffffffff1673ffffffffffffffffffffffffffffffffffffffff16815260200191505060405180910390a1565b6000612082836000018361218c565b60001c905092915050565b60006120b5836000018373ffffffffffffffffffffffffffffffffffffffff1660001b61220f565b905092915050565b60006120cb82600001612232565b9050919050565b6120dd838383612243565b505050565b600061210a836000018373ffffffffffffffffffffffffffffffffffffffff1660001b6122b1565b905092915050565b600061213a836000018373ffffffffffffffffffffffffffffffffffffffff1660001b612321565b905092915050565b600061218483836040518060400160405280601e81526020017f536166654d6174683a207375627472616374696f6e206f766572666c6f770000815250611863565b905092915050565b6000818360000180549050116121ed576040517f08c379a000000000000000000000000000000000000000000000000000000000815260040180806020018281038252602281526020018061240f6022913960400191505060405180910390fd5b8260000182815481106121fc57fe5b9060005260206000200154905092915050565b600080836001016000848152602001908152602001600020541415905092915050565b600081600001805490509050919050565b61224e838383612409565b612256610e9a565b156122ac576040517f08c379a000000000000000000000000000000000000000000000000000000000815260040180806020018281038252602a8152602001806126cd602a913960400191505060405180910390fd5b505050565b60006122bd838361220f565b61231657826000018290806001815401808255809150506001900390600052602060002001600090919091909150558260000180549050836001016000848152602001908152602001600020819055506001905061231b565b600090505b92915050565b600080836001016000848152602001908152602001600020549050600081146123fd576000600182039050600060018660000180549050039050600086600001828154811061236c57fe5b906000526020600020015490508087600001848154811061238957fe5b90600052602060002001819055506001830187600101600083815260200190815260200160002081905550866000018054806123c157fe5b60019003818190600052602060002001600090559055866001016000878152602001908152602001600020600090556001945050505050612403565b60009150505b92915050565b50505056fe456e756d657261626c655365743a20696e646578206f7574206f6620626f756e647345524332303a207472616e7366657220746f20746865207a65726f2061646472657373416363657373436f6e74726f6c3a2073656e646572206d75737420626520616e2061646d696e20746f206772616e7445524332303a206275726e20616d6f756e7420657863656564732062616c616e636545524332305072657365744d696e7465725061757365723a206d75737420686176652070617573657220726f6c6520746f20756e706175736545524332303a20617070726f766520746f20746865207a65726f206164647265737345524332303a207472616e7366657220616d6f756e7420657863656564732062616c616e6365416363657373436f6e74726f6c3a2073656e646572206d75737420626520616e2061646d696e20746f207265766f6b6545524332303a207472616e7366657220616d6f756e74206578636565647320616c6c6f77616e636545524332305072657365744d696e7465725061757365723a206d7573742068617665206d696e74657220726f6c6520746f206d696e7445524332303a206275726e20616d6f756e74206578636565647320616c6c6f77616e636545524332303a206275726e2066726f6d20746865207a65726f206164647265737345524332303a207472616e736665722066726f6d20746865207a65726f206164647265737345524332303a20617070726f76652066726f6d20746865207a65726f206164647265737345524332305072657365744d696e7465725061757365723a206d75737420686176652070617573657220726f6c6520746f20706175736545524332303a2064656372656173656420616c6c6f77616e63652062656c6f77207a65726f416363657373436f6e74726f6c3a2063616e206f6e6c792072656e6f756e636520726f6c657320666f722073656c6645524332305061757361626c653a20746f6b656e207472616e73666572207768696c6520706175736564a2646970667358221220a6e29da391b0f31bd0c4a0c3d96c12aed7eeb0ee71bb77abf918072791701a6c64736f6c63430006020033536166654d6174683a206d756c7469706c69636174696f6e206f766572666c6f77",
  "source": "pragma solidity >=0.4.22 <0.8.0;\n\nimport \"@openzeppelin/contracts/math/Math.sol\";\nimport \"@openzeppelin/contracts/math/SafeMath.sol\";\n// import \"openzeppelin-solidity-2.3.0/contracts/token/ERC20/ERC20Detailed.sol\";\nimport \"@openzeppelin/contracts/token/ERC20/SafeERC20.sol\";\nimport \"@openzeppelin/contracts/utils/ReentrancyGuard.sol\";\nimport \"@openzeppelin/contracts/access/Ownable.sol\";\nimport \"./QuasarToken.sol\";\n\n\ncontract Pool is Ownable, ReentrancyGuard {\n    using SafeMath for uint256;\n    using SafeERC20 for IERC20;\n\n    /* ========== STATE VARIABLES ========== */\n\n    QuasarToken public rewardsToken;\n    // rewards distribution\n    uint256 public periodFinish = 0;\n    uint256 public rewardRate = 0;\n    uint256 public rewardsDuration = 60 days;\n    uint256 public lastUpdateTime;\n    uint256 public rewardPerEthStored;\n\n    mapping(address => uint256) public userRewardPerEthPaid;\n    mapping(address => uint256) public rewards;\n\n    // coverage plans\n    uint256 public coveragePrice;\n    uint256 public coverCount;\n    uint256 public mcr; // Minimum Capital Requirement (pool must be able to cover all possible claims)\n    uint256 public availableCapital; // how much of coverage can the pool deliver ( = pool - mcr)\n\n    mapping (address => Coverage) public coverageOf;\n    mapping (uint256 => bool)  public openClaims;\n    mapping (uint256 => address) public buyerOf;\n    struct Coverage {\n        uint256 id;\n        uint256 expirationTime;\n        uint256 coverAmount;\n    }\n\n    // pool balance tracking\n    uint256 public _totalSupply; // capital pool balance\n    mapping(address => uint256) private _balances; // balances of coverage providers\n\n    /* ========== CONSTRUCTOR ========== */\n\n    constructor() public {\n        rewardsToken = new QuasarToken();\n        rewardsToken.mint(address(this),1000000);\n        notifyRewardAmount(1000000);\n        coverCount = 0;\n        coveragePrice = 2;\n        mcr = 0;\n        availableCapital = 0;\n    }\n\n    /* ========== VIEWS ========== */\n\n    function totalSupply() external view returns (uint256) {\n        return _totalSupply;\n    }\n\n    function balanceOf(address account) external view returns (uint256) {\n        return _balances[account];\n    }\n\n    function lastTimeRewardApplicable() public view returns (uint256) {\n        return Math.min(block.timestamp, periodFinish);\n    }\n\n    function rewardPerEth() public view returns (uint256) {\n        if (_totalSupply == 0) {\n            return rewardPerEthStored;\n        }\n        return\n            rewardPerEthStored.add(\n                lastTimeRewardApplicable().sub(lastUpdateTime).mul(rewardRate).mul(1e18).div(_totalSupply)\n            );\n    }\n\n    function earned(address account) public view returns (uint256) {\n        return _balances[account].mul(rewardPerEth().sub(userRewardPerEthPaid[account])).div(1e18).add(rewards[account]);\n    }\n\n    function getRewardForDuration() external view returns (uint256) {\n        return rewardRate.mul(rewardsDuration);\n    }\n\n    /* ========== MUTATIVE FUNCTIONS ========== */\n\n    function buyCoverage(uint256 _coverPeriod, uint256 _coverAmount)\n        external payable\n        paidEnough(_coverAmount.mul(coveragePrice).mul(_coverPeriod).div(100).div(31536000))\n        validPeriod(_coverPeriod)\n        coverAvailable(_coverAmount)\n        returns(bool)\n    {\n        coverageOf[msg.sender].id = coverCount;\n        coverageOf[msg.sender].expirationTime = now.add(_coverPeriod);\n        coverageOf[msg.sender].coverAmount = _coverAmount;\n        buyerOf[coverCount] = msg.sender;\n        coverCount++;\n        mcr = mcr.add(_coverAmount);\n        availableCapital = _totalSupply.sub(mcr);\n        emit CoverPurchased(msg.sender,_coverPeriod,_coverAmount);\n        return true;\n    }\n\n    function deposit()\n        external payable\n        nonReentrant\n        updateReward(msg.sender)\n    {\n        require(msg.value > 0, \"Cannot deposit 0\");\n        _totalSupply = _totalSupply.add(msg.value);\n        _balances[msg.sender] = _balances[msg.sender].add(msg.value);\n        availableCapital = _totalSupply.sub(mcr);\n        emit Deposited(msg.sender,msg.value);\n    }\n\n    function withdraw(uint256 amount)\n        public\n        nonReentrant\n        isProvider(msg.sender)\n        updateReward(msg.sender)\n    {\n        require(amount > 0, \"Cannot withdraw 0\");\n        require(amount <= _balances[msg.sender], \"Cannot withdraw more than you deposited\");\n        (bool success, ) = msg.sender.call{value:amount}(\"\");\n        if (success) {\n            _totalSupply = _totalSupply.sub(amount);\n            _balances[msg.sender] = _balances[msg.sender].sub(amount);\n            emit Withdrawn(msg.sender, amount);\n        }\n        \n    }\n\n    function getReward()\n        public\n        nonReentrant\n        updateReward(msg.sender)\n    {\n        uint256 reward = rewards[msg.sender];\n        if (reward > 0) {\n            rewards[msg.sender] = 0;\n            rewardsToken.transfer(msg.sender, reward);\n            emit RewardPaid(msg.sender, reward);\n        }\n    }\n\n    function exit()\n        external\n    {\n        withdraw(_balances[msg.sender]);\n        getReward();\n    }\n\n    function openClaim(string calldata statement)\n        external\n        validCover(msg.sender)\n        claimNotOpen(msg.sender)\n    {\n        openClaims[coverageOf[msg.sender].id] = true;\n        emit ClaimOpened(msg.sender, coverageOf[msg.sender].id, statement);\n    }\n\n    function resolveClaim(uint256 coverageID, bool decision)\n        public\n        onlyOwner\n        nonReentrant\n        claimOpen(coverageID)\n    {\n        openClaims[coverageID] = false;\n        if (decision == true) {\n            address payoutReceiver = buyerOf[coverageID];\n            uint256 payoutAmount = coverageOf[payoutReceiver].coverAmount;\n            (bool success, ) = payoutReceiver.call{value:payoutAmount}(\"\");\n            if (success) {\n                emit ClaimPayedOut(coverageID);\n            }\n        }\n        emit ClaimResolved(coverageID, decision);\n    }\n\n    /* ========== RESTRICTED FUNCTIONS ========== */\n\n    function setCoveragePrice(uint256 _coveragePrice)\n        public\n        onlyOwner\n    {\n        coveragePrice = _coveragePrice; //set in percents, e.g. coverPrice = 2 means that the yearly price is 2% of the principal\n        emit CoverPriceUpdated(coveragePrice);\n    }\n\n    function notifyRewardAmount(uint256 reward)\n        internal\n        updateReward(address(0))\n    {\n        if (block.timestamp >= periodFinish) {\n            rewardRate = reward.div(rewardsDuration);\n        } else {\n            uint256 remaining = periodFinish.sub(block.timestamp);\n            uint256 leftover = remaining.mul(rewardRate);\n            rewardRate = reward.add(leftover).div(rewardsDuration);\n        }\n\n        // Ensure the provided reward amount is not more than the balance in the contract.\n        // This keeps the reward rate in the right range, preventing overflows due to\n        // very high values of rewardRate in the earned and rewardsPerToken functions;\n        // Reward + leftover must be less than 2^256 / 10^18 to avoid overflow.\n        uint balance = rewardsToken.balanceOf(address(this));\n        require(rewardRate <= balance.div(rewardsDuration), \"Provided reward too high\");\n\n        lastUpdateTime = block.timestamp;\n        periodFinish = block.timestamp.add(rewardsDuration);\n        emit RewardAdded(reward);\n    }\n\n    /* ========== MODIFIERS ========== */\n\n    modifier updateReward(address account) {\n        rewardPerEthStored = rewardPerEth();\n        lastUpdateTime = lastTimeRewardApplicable();\n        if (account != address(0)) {\n            rewards[account] = earned(account);\n            userRewardPerEthPaid[account] = rewardPerEthStored;\n        }\n        _;\n    }\n    modifier paidEnough(uint256 _price) { require(msg.value >= _price); _;}\n    modifier validPeriod(uint256 _period) {require(_period >= 1209600 && _period <= 31536000); _;}\n    modifier coverAvailable(uint256 _coverAmount) {require(_coverAmount <= availableCapital); _;}\n    modifier validCover(address _buyer) {require(coverageOf[_buyer].expirationTime >= now); _;}\n    modifier claimOpen(uint256 _coverageID) {require(openClaims[_coverageID] == true); _;}\n    modifier claimNotOpen(address _buyer) {require(openClaims[coverageOf[_buyer].id] != true); _;}\n    modifier isProvider(address _provider) {require(_balances[_provider] > 0); _;}\n\n    /* ========== EVENTS ========== */\n\n    event RewardAdded(uint256 reward);\n    event Deposited(address indexed provider, uint256 amount);\n    event Withdrawn(address indexed user, uint256 amount);\n    event RewardPaid(address indexed user, uint256 reward);\n    event CoverPurchased(address indexed buyer, uint256 period, uint256 amount);\n    event CoverPriceUpdated(uint256 newPrice);\n    event ClaimOpened(address indexed buyer, uint256 coverageID, string statement);\n    event ClaimPayedOut(uint256 coverageID);\n    event ClaimResolved(uint256 coverageID, bool decision);\n}\n",
  "sourcePath": "/Users/nikitabuzov/Documents/GitHub/quasar-core/contracts/Pool.sol",
  "compiler": {
    "name": "solc",
    "version": "0.6.2+commit.bacdbe57.Emscripten.clang"
  },
  "schemaVersion": "3.3.1",
  "updatedAt": "2020-12-15T06:19:57.803Z",
  "networkType": "ethereum",
  "devdoc": {
    "methods": {
      "owner()": {
        "details": "Returns the address of the current owner."
      },
      "renounceOwnership()": {
        "details": "Leaves the contract without owner. It will not be possible to call `onlyOwner` functions anymore. Can only be called by the current owner.     * NOTE: Renouncing ownership will leave the contract without an owner, thereby removing any functionality that is only available to the owner."
      },
      "transferOwnership(address)": {
        "details": "Transfers ownership of the contract to a new account (`newOwner`). Can only be called by the current owner."
      }
    }
  },
  "userdoc": {
    "methods": {}
  }
}