{
  "contractName": "Pool",
  "abi": [
    {
      "inputs": [],
      "stateMutability": "nonpayable",
      "type": "constructor"
    },
    {
      "anonymous": false,
      "inputs": [
        {
          "indexed": true,
          "internalType": "address",
          "name": "buyer",
          "type": "address"
        },
        {
          "indexed": false,
          "internalType": "uint256",
          "name": "coverageID",
          "type": "uint256"
        },
        {
          "indexed": false,
          "internalType": "string",
          "name": "statement",
          "type": "string"
        }
      ],
      "name": "ClaimOpened",
      "type": "event"
    },
    {
      "anonymous": false,
      "inputs": [
        {
          "indexed": false,
          "internalType": "uint256",
          "name": "coverageID",
          "type": "uint256"
        }
      ],
      "name": "ClaimPayedOut",
      "type": "event"
    },
    {
      "anonymous": false,
      "inputs": [
        {
          "indexed": false,
          "internalType": "uint256",
          "name": "coverageID",
          "type": "uint256"
        },
        {
          "indexed": false,
          "internalType": "bool",
          "name": "decision",
          "type": "bool"
        }
      ],
      "name": "ClaimResolved",
      "type": "event"
    },
    {
      "anonymous": false,
      "inputs": [
        {
          "indexed": false,
          "internalType": "uint256",
          "name": "newPrice",
          "type": "uint256"
        }
      ],
      "name": "CoverPriceUpdated",
      "type": "event"
    },
    {
      "anonymous": false,
      "inputs": [
        {
          "indexed": true,
          "internalType": "address",
          "name": "buyer",
          "type": "address"
        },
        {
          "indexed": false,
          "internalType": "uint256",
          "name": "period",
          "type": "uint256"
        },
        {
          "indexed": false,
          "internalType": "uint256",
          "name": "amount",
          "type": "uint256"
        }
      ],
      "name": "CoverPurchased",
      "type": "event"
    },
    {
      "anonymous": false,
      "inputs": [
        {
          "indexed": true,
          "internalType": "address",
          "name": "provider",
          "type": "address"
        },
        {
          "indexed": false,
          "internalType": "uint256",
          "name": "amount",
          "type": "uint256"
        }
      ],
      "name": "Deposited",
      "type": "event"
    },
    {
      "anonymous": false,
      "inputs": [
        {
          "indexed": true,
          "internalType": "address",
          "name": "previousOwner",
          "type": "address"
        },
        {
          "indexed": true,
          "internalType": "address",
          "name": "newOwner",
          "type": "address"
        }
      ],
      "name": "OwnershipTransferred",
      "type": "event"
    },
    {
      "anonymous": false,
      "inputs": [
        {
          "indexed": false,
          "internalType": "uint256",
          "name": "reward",
          "type": "uint256"
        }
      ],
      "name": "RewardAdded",
      "type": "event"
    },
    {
      "anonymous": false,
      "inputs": [
        {
          "indexed": true,
          "internalType": "address",
          "name": "user",
          "type": "address"
        },
        {
          "indexed": false,
          "internalType": "uint256",
          "name": "reward",
          "type": "uint256"
        }
      ],
      "name": "RewardPaid",
      "type": "event"
    },
    {
      "anonymous": false,
      "inputs": [
        {
          "indexed": true,
          "internalType": "address",
          "name": "user",
          "type": "address"
        },
        {
          "indexed": false,
          "internalType": "uint256",
          "name": "amount",
          "type": "uint256"
        }
      ],
      "name": "Withdrawn",
      "type": "event"
    },
    {
      "inputs": [],
      "name": "_totalSupply",
      "outputs": [
        {
          "internalType": "uint256",
          "name": "",
          "type": "uint256"
        }
      ],
      "stateMutability": "view",
      "type": "function",
      "constant": true
    },
    {
      "inputs": [],
      "name": "availableCapital",
      "outputs": [
        {
          "internalType": "uint256",
          "name": "",
          "type": "uint256"
        }
      ],
      "stateMutability": "view",
      "type": "function",
      "constant": true
    },
    {
      "inputs": [
        {
          "internalType": "uint256",
          "name": "",
          "type": "uint256"
        }
      ],
      "name": "buyerOf",
      "outputs": [
        {
          "internalType": "address",
          "name": "",
          "type": "address"
        }
      ],
      "stateMutability": "view",
      "type": "function",
      "constant": true
    },
    {
      "inputs": [],
      "name": "coverCount",
      "outputs": [
        {
          "internalType": "uint256",
          "name": "",
          "type": "uint256"
        }
      ],
      "stateMutability": "view",
      "type": "function",
      "constant": true
    },
    {
      "inputs": [
        {
          "internalType": "address",
          "name": "",
          "type": "address"
        }
      ],
      "name": "coverageOf",
      "outputs": [
        {
          "internalType": "uint256",
          "name": "id",
          "type": "uint256"
        },
        {
          "internalType": "uint256",
          "name": "expirationTime",
          "type": "uint256"
        },
        {
          "internalType": "uint256",
          "name": "coverAmount",
          "type": "uint256"
        }
      ],
      "stateMutability": "view",
      "type": "function",
      "constant": true
    },
    {
      "inputs": [],
      "name": "coveragePrice",
      "outputs": [
        {
          "internalType": "uint256",
          "name": "",
          "type": "uint256"
        }
      ],
      "stateMutability": "view",
      "type": "function",
      "constant": true
    },
    {
      "inputs": [],
      "name": "lastUpdateTime",
      "outputs": [
        {
          "internalType": "uint256",
          "name": "",
          "type": "uint256"
        }
      ],
      "stateMutability": "view",
      "type": "function",
      "constant": true
    },
    {
      "inputs": [],
      "name": "mcr",
      "outputs": [
        {
          "internalType": "uint256",
          "name": "",
          "type": "uint256"
        }
      ],
      "stateMutability": "view",
      "type": "function",
      "constant": true
    },
    {
      "inputs": [
        {
          "internalType": "uint256",
          "name": "",
          "type": "uint256"
        }
      ],
      "name": "openClaims",
      "outputs": [
        {
          "internalType": "bool",
          "name": "",
          "type": "bool"
        }
      ],
      "stateMutability": "view",
      "type": "function",
      "constant": true
    },
    {
      "inputs": [],
      "name": "owner",
      "outputs": [
        {
          "internalType": "address",
          "name": "",
          "type": "address"
        }
      ],
      "stateMutability": "view",
      "type": "function",
      "constant": true
    },
    {
      "inputs": [],
      "name": "periodFinish",
      "outputs": [
        {
          "internalType": "uint256",
          "name": "",
          "type": "uint256"
        }
      ],
      "stateMutability": "view",
      "type": "function",
      "constant": true
    },
    {
      "inputs": [],
      "name": "renounceOwnership",
      "outputs": [],
      "stateMutability": "nonpayable",
      "type": "function"
    },
    {
      "inputs": [],
      "name": "rewardPerEthStored",
      "outputs": [
        {
          "internalType": "uint256",
          "name": "",
          "type": "uint256"
        }
      ],
      "stateMutability": "view",
      "type": "function",
      "constant": true
    },
    {
      "inputs": [],
      "name": "rewardRate",
      "outputs": [
        {
          "internalType": "uint256",
          "name": "",
          "type": "uint256"
        }
      ],
      "stateMutability": "view",
      "type": "function",
      "constant": true
    },
    {
      "inputs": [
        {
          "internalType": "address",
          "name": "",
          "type": "address"
        }
      ],
      "name": "rewards",
      "outputs": [
        {
          "internalType": "uint256",
          "name": "",
          "type": "uint256"
        }
      ],
      "stateMutability": "view",
      "type": "function",
      "constant": true
    },
    {
      "inputs": [],
      "name": "rewardsDuration",
      "outputs": [
        {
          "internalType": "uint256",
          "name": "",
          "type": "uint256"
        }
      ],
      "stateMutability": "view",
      "type": "function",
      "constant": true
    },
    {
      "inputs": [],
      "name": "rewardsToken",
      "outputs": [
        {
          "internalType": "contract QuasarToken",
          "name": "",
          "type": "address"
        }
      ],
      "stateMutability": "view",
      "type": "function",
      "constant": true
    },
    {
      "inputs": [
        {
          "internalType": "address",
          "name": "newOwner",
          "type": "address"
        }
      ],
      "name": "transferOwnership",
      "outputs": [],
      "stateMutability": "nonpayable",
      "type": "function"
    },
    {
      "inputs": [
        {
          "internalType": "address",
          "name": "",
          "type": "address"
        }
      ],
      "name": "userRewardPerEthPaid",
      "outputs": [
        {
          "internalType": "uint256",
          "name": "",
          "type": "uint256"
        }
      ],
      "stateMutability": "view",
      "type": "function",
      "constant": true
    },
    {
      "inputs": [],
      "name": "totalSupply",
      "outputs": [
        {
          "internalType": "uint256",
          "name": "",
          "type": "uint256"
        }
      ],
      "stateMutability": "view",
      "type": "function",
      "constant": true
    },
    {
      "inputs": [
        {
          "internalType": "address",
          "name": "account",
          "type": "address"
        }
      ],
      "name": "balanceOf",
      "outputs": [
        {
          "internalType": "uint256",
          "name": "",
          "type": "uint256"
        }
      ],
      "stateMutability": "view",
      "type": "function",
      "constant": true
    },
    {
      "inputs": [],
      "name": "lastTimeRewardApplicable",
      "outputs": [
        {
          "internalType": "uint256",
          "name": "",
          "type": "uint256"
        }
      ],
      "stateMutability": "view",
      "type": "function",
      "constant": true
    },
    {
      "inputs": [],
      "name": "rewardPerEth",
      "outputs": [
        {
          "internalType": "uint256",
          "name": "",
          "type": "uint256"
        }
      ],
      "stateMutability": "view",
      "type": "function",
      "constant": true
    },
    {
      "inputs": [
        {
          "internalType": "address",
          "name": "account",
          "type": "address"
        }
      ],
      "name": "earned",
      "outputs": [
        {
          "internalType": "uint256",
          "name": "",
          "type": "uint256"
        }
      ],
      "stateMutability": "view",
      "type": "function",
      "constant": true
    },
    {
      "inputs": [],
      "name": "getRewardForDuration",
      "outputs": [
        {
          "internalType": "uint256",
          "name": "",
          "type": "uint256"
        }
      ],
      "stateMutability": "view",
      "type": "function",
      "constant": true
    },
    {
      "inputs": [
        {
          "internalType": "uint256",
          "name": "_coverPeriod",
          "type": "uint256"
        },
        {
          "internalType": "uint256",
          "name": "_coverAmount",
          "type": "uint256"
        }
      ],
      "name": "buyCoverage",
      "outputs": [
        {
          "internalType": "bool",
          "name": "",
          "type": "bool"
        }
      ],
      "stateMutability": "payable",
      "type": "function",
      "payable": true
    },
    {
      "inputs": [],
      "name": "deposit",
      "outputs": [],
      "stateMutability": "payable",
      "type": "function",
      "payable": true
    },
    {
      "inputs": [
        {
          "internalType": "uint256",
          "name": "amount",
          "type": "uint256"
        }
      ],
      "name": "withdraw",
      "outputs": [],
      "stateMutability": "nonpayable",
      "type": "function"
    },
    {
      "inputs": [],
      "name": "getReward",
      "outputs": [],
      "stateMutability": "nonpayable",
      "type": "function"
    },
    {
      "inputs": [],
      "name": "exit",
      "outputs": [],
      "stateMutability": "nonpayable",
      "type": "function"
    },
    {
      "inputs": [
        {
          "internalType": "string",
          "name": "statement",
          "type": "string"
        }
      ],
      "name": "openClaim",
      "outputs": [],
      "stateMutability": "nonpayable",
      "type": "function"
    },
    {
      "inputs": [
        {
          "internalType": "uint256",
          "name": "coverageID",
          "type": "uint256"
        },
        {
          "internalType": "bool",
          "name": "decision",
          "type": "bool"
        }
      ],
      "name": "resolveClaim",
      "outputs": [],
      "stateMutability": "nonpayable",
      "type": "function"
    },
    {
      "inputs": [
        {
          "internalType": "uint256",
          "name": "_coveragePrice",
          "type": "uint256"
        }
      ],
      "name": "setCoveragePrice",
      "outputs": [],
      "stateMutability": "nonpayable",
      "type": "function"
    },
    {
      "inputs": [],
      "name": "toggleContractActive",
      "outputs": [],
      "stateMutability": "nonpayable",
      "type": "function"
    }
  ],
  "bytecode": "0x60806040526000600260146101000a81548160ff02191690831515021790555060006003556000600455624f1a006005553480156200003d57600080fd5b506000620000506200026160201b60201c565b9050806000806101000a81548173ffffffffffffffffffffffffffffffffffffffff021916908373ffffffffffffffffffffffffffffffffffffffff1602179055508073ffffffffffffffffffffffffffffffffffffffff16600073ffffffffffffffffffffffffffffffffffffffff167f8be0079c531659141344cd1fd0a4f28419497f9722a3daafe3b4186f6b6457e060405160405180910390a35060018081905550604051620001039062000b70565b604051809103906000f08015801562000120573d6000803e3d6000fd5b50600260006101000a81548173ffffffffffffffffffffffffffffffffffffffff021916908373ffffffffffffffffffffffffffffffffffffffff160217905550600260009054906101000a900473ffffffffffffffffffffffffffffffffffffffff1673ffffffffffffffffffffffffffffffffffffffff166340c10f1930620f42406040518363ffffffff1660e01b8152600401808373ffffffffffffffffffffffffffffffffffffffff1673ffffffffffffffffffffffffffffffffffffffff16815260200182815260200192505050600060405180830381600087803b1580156200020e57600080fd5b505af115801562000223573d6000803e3d6000fd5b505050506200023b620f42406200026960201b60201c565b6000600b819055506002600a819055506000600c819055506000600d8190555062000b7e565b600033905090565b60006200027b620005f160201b60201c565b60078190555062000291620006ac60201b60201c565b600681905550600073ffffffffffffffffffffffffffffffffffffffff168173ffffffffffffffffffffffffffffffffffffffff16146200036757620002dd81620006cc60201b60201c565b600960008373ffffffffffffffffffffffffffffffffffffffff1673ffffffffffffffffffffffffffffffffffffffff16815260200190815260200160002081905550600754600860008373ffffffffffffffffffffffffffffffffffffffff1673ffffffffffffffffffffffffffffffffffffffff168152602001908152602001600020819055505b600354421062000399576200038d600554836200080e60201b620026ae1790919060201c565b60048190555062000417565b6000620003b7426003546200086060201b620025de1790919060201c565b90506000620003d760045483620008b260201b620026281790919060201c565b90506200040e600554620003fa83876200093d60201b620026f81790919060201c565b6200080e60201b620026ae1790919060201c565b60048190555050505b6000600260009054906101000a900473ffffffffffffffffffffffffffffffffffffffff1673ffffffffffffffffffffffffffffffffffffffff166370a08231306040518263ffffffff1660e01b8152600401808273ffffffffffffffffffffffffffffffffffffffff1673ffffffffffffffffffffffffffffffffffffffff16815260200191505060206040518083038186803b158015620004b957600080fd5b505afa158015620004ce573d6000803e3d6000fd5b505050506040513d6020811015620004e557600080fd5b8101908080519060200190929190505050905062000514600554826200080e60201b620026ae1790919060201c565b60045411156200058c576040517f08c379a00000000000000000000000000000000000000000000000000000000081526004018080602001828103825260188152602001807f50726f76696465642072657761726420746f6f2068696768000000000000000081525060200191505060405180910390fd5b42600681905550620005af600554426200093d60201b620026f81790919060201c565b6003819055507fde88a922e0d3b88b24e9623efeb464919c6bf9f66857a65e2bfcf2ce87a9433d836040518082815260200191505060405180910390a1505050565b600080601154141562000609576007549050620006a9565b620006a66200068f6011546200067b670de0b6b3a764000062000667600454620006536006546200063f620006ac60201b60201c565b6200086060201b620025de1790919060201c565b620008b260201b620026281790919060201c565b620008b260201b620026281790919060201c565b6200080e60201b620026ae1790919060201c565b6007546200093d60201b620026f81790919060201c565b90505b90565b6000620006c742600354620009c660201b620027881760201c565b905090565b600062000807600960008473ffffffffffffffffffffffffffffffffffffffff1673ffffffffffffffffffffffffffffffffffffffff16815260200190815260200160002054620007f3670de0b6b3a7640000620007df6200078b600860008973ffffffffffffffffffffffffffffffffffffffff1673ffffffffffffffffffffffffffffffffffffffff1681526020019081526020016000205462000777620005f160201b60201c565b6200086060201b620025de1790919060201c565b601260008973ffffffffffffffffffffffffffffffffffffffff1673ffffffffffffffffffffffffffffffffffffffff16815260200190815260200160002054620008b260201b620026281790919060201c565b6200080e60201b620026ae1790919060201c565b6200093d60201b620026f81790919060201c565b9050919050565b60006200085883836040518060400160405280601a81526020017f536166654d6174683a206469766973696f6e206279207a65726f000000000000815250620009e160201b60201c565b905092915050565b6000620008aa83836040518060400160405280601e81526020017f536166654d6174683a207375627472616374696f6e206f766572666c6f77000081525062000aac60201b60201c565b905092915050565b600080831415620008c7576000905062000937565b6000828402905082848281620008d957fe5b041462000932576040517f08c379a00000000000000000000000000000000000000000000000000000000081526004018080602001828103825260218152602001806200608f6021913960400191505060405180910390fd5b809150505b92915050565b600080828401905083811015620009bc576040517f08c379a000000000000000000000000000000000000000000000000000000000815260040180806020018281038252601b8152602001807f536166654d6174683a206164646974696f6e206f766572666c6f77000000000081525060200191505060405180910390fd5b8091505092915050565b6000818310620009d75781620009d9565b825b905092915050565b6000808311829062000a91576040517f08c379a00000000000000000000000000000000000000000000000000000000081526004018080602001828103825283818151815260200191508051906020019080838360005b8381101562000a5557808201518184015260208101905062000a38565b50505050905090810190601f16801562000a835780820380516001836020036101000a031916815260200191505b509250505060405180910390fd5b50600083858162000a9e57fe5b049050809150509392505050565b600083831115829062000b5d576040517f08c379a00000000000000000000000000000000000000000000000000000000081526004018080602001828103825283818151815260200191508051906020019080838360005b8381101562000b2157808201518184015260208101905062000b04565b50505050905090810190601f16801562000b4f5780820380516001836020036101000a031916815260200191505b509250505060405180910390fd5b5060008385039050809150509392505050565b612b36806200355983390190565b6129cb8062000b8e6000396000f3fe6080604052600436106101f85760003560e01c806383f95f131161010d578063d1af0c7d116100a0578063e9fad8ee1161006f578063e9fad8ee14610916578063ebe2b12b1461092d578063f27841e314610958578063f2fde38b146109a8578063feb0b8f5146109f9576101f8565b8063d1af0c7d146107ee578063d4d83ec414610845578063da0ade5014610870578063e98fc508146108eb576101f8565b8063ad2f295e116100dc578063ad2f295e14610753578063b8caedc41461078e578063c8f33c91146107b9578063d0e30db0146107e4576101f8565b806383f95f13146105e65780638da5cb5b1461066c5780638e5d8953146106c357806396411538146106ee576101f8565b80632e1a7d4d1161019057806370a082311161015f57806370a08231146104c1578063715018a61461052657806372be0d8b1461053d5780637b0a47ee1461059057806380faa57d146105bb576101f8565b80632e1a7d4d14610419578063386a9525146104545780633d18b9121461047f5780633eaaf86b14610496576101f8565b806318160ddd116101cc57806318160ddd14610351578063199cb7d81461037c5780631c1f78eb146103a7578063224dcd72146103d2576101f8565b80628cc262146101fd5780630700037d1461026257806312045987146102c75780631385d24c1461033a575b600080fd5b34801561020957600080fd5b5061024c6004803603602081101561022057600080fd5b81019080803573ffffffffffffffffffffffffffffffffffffffff169060200190929190505050610a24565b6040518082815260200191505060405180910390f35b34801561026e57600080fd5b506102b16004803603602081101561028557600080fd5b81019080803573ffffffffffffffffffffffffffffffffffffffff169060200190929190505050610b42565b6040518082815260200191505060405180910390f35b3480156102d357600080fd5b50610316600480360360208110156102ea57600080fd5b81019080803573ffffffffffffffffffffffffffffffffffffffff169060200190929190505050610b5a565b60405180848152602001838152602001828152602001935050505060405180910390f35b34801561034657600080fd5b5061034f610b84565b005b34801561035d57600080fd5b50610366610c79565b6040518082815260200191505060405180910390f35b34801561038857600080fd5b50610391610c83565b6040518082815260200191505060405180910390f35b3480156103b357600080fd5b506103bc610c89565b6040518082815260200191505060405180910390f35b3480156103de57600080fd5b50610417600480360360408110156103f557600080fd5b8101908080359060200190929190803515159060200190929190505050610ca7565b005b34801561042557600080fd5b506104526004803603602081101561043c57600080fd5b8101908080359060200190929190505050610fd5565b005b34801561046057600080fd5b50610469611425565b6040518082815260200191505060405180910390f35b34801561048b57600080fd5b5061049461142b565b005b3480156104a257600080fd5b506104ab611776565b6040518082815260200191505060405180910390f35b3480156104cd57600080fd5b50610510600480360360208110156104e457600080fd5b81019080803573ffffffffffffffffffffffffffffffffffffffff16906020019092919050505061177c565b6040518082815260200191505060405180910390f35b34801561053257600080fd5b5061053b6117c5565b005b34801561054957600080fd5b506105766004803603602081101561056057600080fd5b810190808035906020019092919050505061194d565b604051808215151515815260200191505060405180910390f35b34801561059c57600080fd5b506105a561196d565b6040518082815260200191505060405180910390f35b3480156105c757600080fd5b506105d0611973565b6040518082815260200191505060405180910390f35b3480156105f257600080fd5b5061066a6004803603602081101561060957600080fd5b810190808035906020019064010000000081111561062657600080fd5b82018360208201111561063857600080fd5b8035906020019184600183028401116401000000008311171561065a57600080fd5b9091929391929390505050611986565b005b34801561067857600080fd5b50610681611b83565b604051808273ffffffffffffffffffffffffffffffffffffffff1673ffffffffffffffffffffffffffffffffffffffff16815260200191505060405180910390f35b3480156106cf57600080fd5b506106d8611bac565b6040518082815260200191505060405180910390f35b3480156106fa57600080fd5b5061073d6004803603602081101561071157600080fd5b81019080803573ffffffffffffffffffffffffffffffffffffffff169060200190929190505050611c3a565b6040518082815260200191505060405180910390f35b34801561075f57600080fd5b5061078c6004803603602081101561077657600080fd5b8101908080359060200190929190505050611c52565b005b34801561079a57600080fd5b506107a3611d5e565b6040518082815260200191505060405180910390f35b3480156107c557600080fd5b506107ce611d64565b6040518082815260200191505060405180910390f35b6107ec611d6a565b005b3480156107fa57600080fd5b5061080361207f565b604051808273ffffffffffffffffffffffffffffffffffffffff1673ffffffffffffffffffffffffffffffffffffffff16815260200191505060405180910390f35b34801561085157600080fd5b5061085a6120a5565b6040518082815260200191505060405180910390f35b34801561087c57600080fd5b506108a96004803603602081101561089357600080fd5b81019080803590602001909291905050506120ab565b604051808273ffffffffffffffffffffffffffffffffffffffff1673ffffffffffffffffffffffffffffffffffffffff16815260200191505060405180910390f35b3480156108f757600080fd5b506109006120de565b6040518082815260200191505060405180910390f35b34801561092257600080fd5b5061092b6120e4565b005b34801561093957600080fd5b50610942612136565b6040518082815260200191505060405180910390f35b61098e6004803603604081101561096e57600080fd5b81019080803590602001909291908035906020019092919050505061213c565b604051808215151515815260200191505060405180910390f35b3480156109b457600080fd5b506109f7600480360360208110156109cb57600080fd5b81019080803573ffffffffffffffffffffffffffffffffffffffff1690602001909291905050506123cb565b005b348015610a0557600080fd5b50610a0e6125d8565b6040518082815260200191505060405180910390f35b6000610b3b600960008473ffffffffffffffffffffffffffffffffffffffff1673ffffffffffffffffffffffffffffffffffffffff16815260200190815260200160002054610b2d670de0b6b3a7640000610b1f610ad1600860008973ffffffffffffffffffffffffffffffffffffffff1673ffffffffffffffffffffffffffffffffffffffff16815260200190815260200160002054610ac3611bac565b6125de90919063ffffffff16565b601260008973ffffffffffffffffffffffffffffffffffffffff1673ffffffffffffffffffffffffffffffffffffffff1681526020019081526020016000205461262890919063ffffffff16565b6126ae90919063ffffffff16565b6126f890919063ffffffff16565b9050919050565b60096020528060005260406000206000915090505481565b600e6020528060005260406000206000915090508060000154908060010154908060020154905083565b610b8c612780565b73ffffffffffffffffffffffffffffffffffffffff166000809054906101000a900473ffffffffffffffffffffffffffffffffffffffff1673ffffffffffffffffffffffffffffffffffffffff1614610c4d576040517f08c379a00000000000000000000000000000000000000000000000000000000081526004018080602001828103825260208152602001807f4f776e61626c653a2063616c6c6572206973206e6f7420746865206f776e657281525060200191505060405180910390fd5b600260149054906101000a900460ff1615600260146101000a81548160ff021916908315150217905550565b6000601154905090565b600d5481565b6000610ca260055460045461262890919063ffffffff16565b905090565b610caf612780565b73ffffffffffffffffffffffffffffffffffffffff166000809054906101000a900473ffffffffffffffffffffffffffffffffffffffff1673ffffffffffffffffffffffffffffffffffffffff1614610d70576040517f08c379a00000000000000000000000000000000000000000000000000000000081526004018080602001828103825260208152602001807f4f776e61626c653a2063616c6c6572206973206e6f7420746865206f776e657281525060200191505060405180910390fd5b60026001541415610de9576040517f08c379a000000000000000000000000000000000000000000000000000000000815260040180806020018281038252601f8152602001807f5265656e7472616e637947756172643a207265656e7472616e742063616c6c0081525060200191505060405180910390fd5b60026001819055508160011515600f600083815260200190815260200160002060009054906101000a900460ff16151514610e2357600080fd5b6000600f600085815260200190815260200160002060006101000a81548160ff021916908315150217905550600115158215151415610f865760006010600085815260200190815260200160002060009054906101000a900473ffffffffffffffffffffffffffffffffffffffff1690506000600e60008373ffffffffffffffffffffffffffffffffffffffff1673ffffffffffffffffffffffffffffffffffffffff16815260200190815260200160002060020154905060008273ffffffffffffffffffffffffffffffffffffffff168260405180600001905060006040518083038185875af1925050503d8060008114610f3b576040519150601f19603f3d011682016040523d82523d6000602084013e610f40565b606091505b505090508015610f82577ff344f7066029d64ba9bd14e0c295fcf9476e13954beded9f5cf5f446da2e7553866040518082815260200191505060405180910390a15b5050505b7fb96a745cc9b77f50219b8e380073ef1912e87ae66ce099a72ce1029259093ff1838360405180838152602001821515151581526020019250505060405180910390a150600180819055505050565b6002600154141561104e576040517f08c379a000000000000000000000000000000000000000000000000000000000815260040180806020018281038252601f8152602001807f5265656e7472616e637947756172643a207265656e7472616e742063616c6c0081525060200191505060405180910390fd5b6002600181905550600260149054906101000a900460ff1661141b57336000601260008373ffffffffffffffffffffffffffffffffffffffff1673ffffffffffffffffffffffffffffffffffffffff16815260200190815260200160002054116110b757600080fd5b336110c0611bac565b6007819055506110ce611973565b600681905550600073ffffffffffffffffffffffffffffffffffffffff168173ffffffffffffffffffffffffffffffffffffffff161461119b5761111181610a24565b600960008373ffffffffffffffffffffffffffffffffffffffff1673ffffffffffffffffffffffffffffffffffffffff16815260200190815260200160002081905550600754600860008373ffffffffffffffffffffffffffffffffffffffff1673ffffffffffffffffffffffffffffffffffffffff168152602001908152602001600020819055505b60008311611211576040517f08c379a00000000000000000000000000000000000000000000000000000000081526004018080602001828103825260118152602001807f43616e6e6f74207769746864726177203000000000000000000000000000000081525060200191505060405180910390fd5b601260003373ffffffffffffffffffffffffffffffffffffffff1673ffffffffffffffffffffffffffffffffffffffff168152602001908152602001600020548311156112a9576040517f08c379a00000000000000000000000000000000000000000000000000000000081526004018080602001828103825260278152602001806129286027913960400191505060405180910390fd5b60003373ffffffffffffffffffffffffffffffffffffffff168460405180600001905060006040518083038185875af1925050503d8060008114611309576040519150601f19603f3d011682016040523d82523d6000602084013e61130e565b606091505b5050905080156114175761132d846011546125de90919063ffffffff16565b60118190555061138584601260003373ffffffffffffffffffffffffffffffffffffffff1673ffffffffffffffffffffffffffffffffffffffff168152602001908152602001600020546125de90919063ffffffff16565b601260003373ffffffffffffffffffffffffffffffffffffffff1673ffffffffffffffffffffffffffffffffffffffff168152602001908152602001600020819055503373ffffffffffffffffffffffffffffffffffffffff167f7084f5476618d8e60b11ef0d7d3f06914655adb8793e28ff7f018d4c76d505d5856040518082815260200191505060405180910390a25b5050505b6001808190555050565b60055481565b600260015414156114a4576040517f08c379a000000000000000000000000000000000000000000000000000000000815260040180806020018281038252601f8152602001807f5265656e7472616e637947756172643a207265656e7472616e742063616c6c0081525060200191505060405180910390fd5b6002600181905550600260149054906101000a900460ff1661176d57336114c9611bac565b6007819055506114d7611973565b600681905550600073ffffffffffffffffffffffffffffffffffffffff168173ffffffffffffffffffffffffffffffffffffffff16146115a45761151a81610a24565b600960008373ffffffffffffffffffffffffffffffffffffffff1673ffffffffffffffffffffffffffffffffffffffff16815260200190815260200160002081905550600754600860008373ffffffffffffffffffffffffffffffffffffffff1673ffffffffffffffffffffffffffffffffffffffff168152602001908152602001600020819055505b6000600960003373ffffffffffffffffffffffffffffffffffffffff1673ffffffffffffffffffffffffffffffffffffffff168152602001908152602001600020549050600081111561176a576000600960003373ffffffffffffffffffffffffffffffffffffffff1673ffffffffffffffffffffffffffffffffffffffff16815260200190815260200160002081905550600260009054906101000a900473ffffffffffffffffffffffffffffffffffffffff1673ffffffffffffffffffffffffffffffffffffffff1663a9059cbb33836040518363ffffffff1660e01b8152600401808373ffffffffffffffffffffffffffffffffffffffff1673ffffffffffffffffffffffffffffffffffffffff16815260200182815260200192505050602060405180830381600087803b1580156116df57600080fd5b505af11580156116f3573d6000803e3d6000fd5b505050506040513d602081101561170957600080fd5b8101908080519060200190929190505050503373ffffffffffffffffffffffffffffffffffffffff167fe2403640ba68fed3a2f88b7557551d1993f84b99bb10ff833f0cf8db0c5e0486826040518082815260200191505060405180910390a25b50505b60018081905550565b60115481565b6000601260008373ffffffffffffffffffffffffffffffffffffffff1673ffffffffffffffffffffffffffffffffffffffff168152602001908152602001600020549050919050565b6117cd612780565b73ffffffffffffffffffffffffffffffffffffffff166000809054906101000a900473ffffffffffffffffffffffffffffffffffffffff1673ffffffffffffffffffffffffffffffffffffffff161461188e576040517f08c379a00000000000000000000000000000000000000000000000000000000081526004018080602001828103825260208152602001807f4f776e61626c653a2063616c6c6572206973206e6f7420746865206f776e657281525060200191505060405180910390fd5b600073ffffffffffffffffffffffffffffffffffffffff166000809054906101000a900473ffffffffffffffffffffffffffffffffffffffff1673ffffffffffffffffffffffffffffffffffffffff167f8be0079c531659141344cd1fd0a4f28419497f9722a3daafe3b4186f6b6457e060405160405180910390a360008060006101000a81548173ffffffffffffffffffffffffffffffffffffffff021916908373ffffffffffffffffffffffffffffffffffffffff160217905550565b600f6020528060005260406000206000915054906101000a900460ff1681565b60045481565b600061198142600354612788565b905090565b3342600e60008373ffffffffffffffffffffffffffffffffffffffff1673ffffffffffffffffffffffffffffffffffffffff1681526020019081526020016000206001015410156119d657600080fd5b3360011515600f6000600e60008573ffffffffffffffffffffffffffffffffffffffff1673ffffffffffffffffffffffffffffffffffffffff16815260200190815260200160002060000154815260200190815260200160002060009054906101000a900460ff1615151415611a4b57600080fd5b6001600f6000600e60003373ffffffffffffffffffffffffffffffffffffffff1673ffffffffffffffffffffffffffffffffffffffff16815260200190815260200160002060000154815260200190815260200160002060006101000a81548160ff0219169083151502179055503373ffffffffffffffffffffffffffffffffffffffff167fcb1da10e4831d2a84161b0f41caa59da3657534cb84274abc6284544562beaea600e60003373ffffffffffffffffffffffffffffffffffffffff1673ffffffffffffffffffffffffffffffffffffffff16815260200190815260200160002060000154868660405180848152602001806020018281038252848482818152602001925080828437600081840152601f19601f82011690508083019250505094505050505060405180910390a250505050565b60008060009054906101000a900473ffffffffffffffffffffffffffffffffffffffff16905090565b6000806011541415611bc2576007549050611c37565b611c34611c23601154611c15670de0b6b3a7640000611c07600454611bf9600654611beb611973565b6125de90919063ffffffff16565b61262890919063ffffffff16565b61262890919063ffffffff16565b6126ae90919063ffffffff16565b6007546126f890919063ffffffff16565b90505b90565b60086020528060005260406000206000915090505481565b611c5a612780565b73ffffffffffffffffffffffffffffffffffffffff166000809054906101000a900473ffffffffffffffffffffffffffffffffffffffff1673ffffffffffffffffffffffffffffffffffffffff1614611d1b576040517f08c379a00000000000000000000000000000000000000000000000000000000081526004018080602001828103825260208152602001807f4f776e61626c653a2063616c6c6572206973206e6f7420746865206f776e657281525060200191505060405180910390fd5b80600a819055507f7a2dda3b435fdfcb1f20bf80ab6e86aa62b385e6a8a70e6e829e88d1a3513d99600a546040518082815260200191505060405180910390a150565b600c5481565b60065481565b60026001541415611de3576040517f08c379a000000000000000000000000000000000000000000000000000000000815260040180806020018281038252601f8152602001807f5265656e7472616e637947756172643a207265656e7472616e742063616c6c0081525060200191505060405180910390fd5b6002600181905550600260149054906101000a900460ff166120765733611e08611bac565b600781905550611e16611973565b600681905550600073ffffffffffffffffffffffffffffffffffffffff168173ffffffffffffffffffffffffffffffffffffffff1614611ee357611e5981610a24565b600960008373ffffffffffffffffffffffffffffffffffffffff1673ffffffffffffffffffffffffffffffffffffffff16815260200190815260200160002081905550600754600860008373ffffffffffffffffffffffffffffffffffffffff1673ffffffffffffffffffffffffffffffffffffffff168152602001908152602001600020819055505b60003411611f59576040517f08c379a00000000000000000000000000000000000000000000000000000000081526004018080602001828103825260108152602001807f43616e6e6f74206465706f73697420300000000000000000000000000000000081525060200191505060405180910390fd5b611f6e346011546126f890919063ffffffff16565b601181905550611fc634601260003373ffffffffffffffffffffffffffffffffffffffff1673ffffffffffffffffffffffffffffffffffffffff168152602001908152602001600020546126f890919063ffffffff16565b601260003373ffffffffffffffffffffffffffffffffffffffff1673ffffffffffffffffffffffffffffffffffffffff16815260200190815260200160002081905550612020600c546011546125de90919063ffffffff16565b600d819055503373ffffffffffffffffffffffffffffffffffffffff167f2da466a7b24304f47e87fa2e1e5a81b9831ce54fec19055ce277ca2f39ba42c4346040518082815260200191505060405180910390a2505b60018081905550565b600260009054906101000a900473ffffffffffffffffffffffffffffffffffffffff1681565b60075481565b60106020528060005260406000206000915054906101000a900473ffffffffffffffffffffffffffffffffffffffff1681565b600a5481565b61212c601260003373ffffffffffffffffffffffffffffffffffffffff1673ffffffffffffffffffffffffffffffffffffffff16815260200190815260200160002054610fd5565b61213461142b565b565b60035481565b6000600260149054906101000a900460ff166123c5576121a26301e13380612194606461218687612178600a548961262890919063ffffffff16565b61262890919063ffffffff16565b6126ae90919063ffffffff16565b6126ae90919063ffffffff16565b803410156121af57600080fd5b836212750081101580156121c757506301e133808111155b6121d057600080fd5b83600d548111156121e057600080fd5b600b54600e60003373ffffffffffffffffffffffffffffffffffffffff1673ffffffffffffffffffffffffffffffffffffffff1681526020019081526020016000206000018190555061223c86426126f890919063ffffffff16565b600e60003373ffffffffffffffffffffffffffffffffffffffff1673ffffffffffffffffffffffffffffffffffffffff1681526020019081526020016000206001018190555084600e60003373ffffffffffffffffffffffffffffffffffffffff1673ffffffffffffffffffffffffffffffffffffffff168152602001908152602001600020600201819055503360106000600b54815260200190815260200160002060006101000a81548173ffffffffffffffffffffffffffffffffffffffff021916908373ffffffffffffffffffffffffffffffffffffffff160217905550600b6000815480929190600101919050555061234485600c546126f890919063ffffffff16565b600c81905550612361600c546011546125de90919063ffffffff16565b600d819055503373ffffffffffffffffffffffffffffffffffffffff167fde480a9a0580db096fbff54be5cd7a5492c681a07ab1b557cd00a93dad81d3e58787604051808381526020018281526020019250505060405180910390a2600193505050505b92915050565b6123d3612780565b73ffffffffffffffffffffffffffffffffffffffff166000809054906101000a900473ffffffffffffffffffffffffffffffffffffffff1673ffffffffffffffffffffffffffffffffffffffff1614612494576040517f08c379a00000000000000000000000000000000000000000000000000000000081526004018080602001828103825260208152602001807f4f776e61626c653a2063616c6c6572206973206e6f7420746865206f776e657281525060200191505060405180910390fd5b600073ffffffffffffffffffffffffffffffffffffffff168173ffffffffffffffffffffffffffffffffffffffff16141561251a576040517f08c379a000000000000000000000000000000000000000000000000000000000815260040180806020018281038252602681526020018061294f6026913960400191505060405180910390fd5b8073ffffffffffffffffffffffffffffffffffffffff166000809054906101000a900473ffffffffffffffffffffffffffffffffffffffff1673ffffffffffffffffffffffffffffffffffffffff167f8be0079c531659141344cd1fd0a4f28419497f9722a3daafe3b4186f6b6457e060405160405180910390a3806000806101000a81548173ffffffffffffffffffffffffffffffffffffffff021916908373ffffffffffffffffffffffffffffffffffffffff16021790555050565b600b5481565b600061262083836040518060400160405280601e81526020017f536166654d6174683a207375627472616374696f6e206f766572666c6f7700008152506127a1565b905092915050565b60008083141561263b57600090506126a8565b600082840290508284828161264c57fe5b04146126a3576040517f08c379a00000000000000000000000000000000000000000000000000000000081526004018080602001828103825260218152602001806129756021913960400191505060405180910390fd5b809150505b92915050565b60006126f083836040518060400160405280601a81526020017f536166654d6174683a206469766973696f6e206279207a65726f000000000000815250612861565b905092915050565b600080828401905083811015612776576040517f08c379a000000000000000000000000000000000000000000000000000000000815260040180806020018281038252601b8152602001807f536166654d6174683a206164646974696f6e206f766572666c6f77000000000081525060200191505060405180910390fd5b8091505092915050565b600033905090565b60008183106127975781612799565b825b905092915050565b600083831115829061284e576040517f08c379a00000000000000000000000000000000000000000000000000000000081526004018080602001828103825283818151815260200191508051906020019080838360005b838110156128135780820151818401526020810190506127f8565b50505050905090810190601f1680156128405780820380516001836020036101000a031916815260200191505b509250505060405180910390fd5b5060008385039050809150509392505050565b6000808311829061290d576040517f08c379a00000000000000000000000000000000000000000000000000000000081526004018080602001828103825283818151815260200191508051906020019080838360005b838110156128d25780820151818401526020810190506128b7565b50505050905090810190601f1680156128ff5780820380516001836020036101000a031916815260200191505b509250505060405180910390fd5b50600083858161291957fe5b04905080915050939250505056fe43616e6e6f74207769746864726177206d6f7265207468616e20796f75206465706f73697465644f776e61626c653a206e6577206f776e657220697320746865207a65726f2061646472657373536166654d6174683a206d756c7469706c69636174696f6e206f766572666c6f77a2646970667358221220f837e908ca85e271446b9d2a45c4dd797b874a0c4de606ef9f25a536e619ca0164736f6c6343000602003360806040526040518060400160405280600b81526020017f517561736172546f6b656e0000000000000000000000000000000000000000008152506040518060400160405280600381526020017f5153520000000000000000000000000000000000000000000000000000000000815250818181600490805190602001906200008a9291906200034b565b508060059080519060200190620000a39291906200034b565b506012600660006101000a81548160ff021916908360ff16021790555050506000600660016101000a81548160ff021916908315150217905550620001016000801b620000f5620001b560201b60201c565b620001bd60201b60201c565b6200015760405180807f4d494e5445525f524f4c45000000000000000000000000000000000000000000815250600b01905060405180910390206200014b620001b560201b60201c565b620001bd60201b60201c565b620001ad60405180807f5041555345525f524f4c45000000000000000000000000000000000000000000815250600b0190506040518091039020620001a1620001b560201b60201c565b620001bd60201b60201c565b5050620003fa565b600033905090565b620001cf8282620001d360201b60201c565b5050565b62000201816000808581526020019081526020016000206000016200027660201b620020e21790919060201c565b15620002725762000217620001b560201b60201c565b73ffffffffffffffffffffffffffffffffffffffff168173ffffffffffffffffffffffffffffffffffffffff16837f2f8788117e7eff1d82e926ec794901d17c78024a50270940304540a733656f0d60405160405180910390a45b5050565b6000620002a6836000018373ffffffffffffffffffffffffffffffffffffffff1660001b620002ae60201b60201c565b905092915050565b6000620002c283836200032860201b60201c565b6200031d57826000018290806001815401808255809150506001900390600052602060002001600090919091909150558260000180549050836001016000848152602001908152602001600020819055506001905062000322565b600090505b92915050565b600080836001016000848152602001908152602001600020541415905092915050565b828054600181600116156101000203166002900490600052602060002090601f016020900481019282601f106200038e57805160ff1916838001178555620003bf565b82800160010185558215620003bf579182015b82811115620003be578251825591602001919060010190620003a1565b5b509050620003ce9190620003d2565b5090565b620003f791905b80821115620003f3576000816000905550600101620003d9565b5090565b90565b61272c806200040a6000396000f3fe608060405234801561001057600080fd5b50600436106101a95760003560e01c806370a08231116100f9578063a457c2d711610097578063d539139311610071578063d539139314610888578063d547741f146108a6578063dd62ed3e146108f4578063e63ab1e91461096c576101a9565b8063a457c2d71461077a578063a9059cbb146107e0578063ca15c87314610846576101a9565b80639010d07c116100d35780639010d07c146105fb57806391d148541461067357806395d89b41146106d9578063a217fddf1461075c576101a9565b806370a082311461054b57806379cc6790146105a35780638456cb59146105f1576101a9565b8063313ce567116101665780633f4ba83a116101405780633f4ba83a146104a357806340c10f19146104ad57806342966c68146104fb5780635c975abb14610529576101a9565b8063313ce567146103cb57806336568abe146103ef578063395093511461043d576101a9565b806306fdde03146101ae578063095ea7b31461023157806318160ddd1461029757806323b872dd146102b5578063248a9ca31461033b5780632f2ff15d1461037d575b600080fd5b6101b661098a565b6040518080602001828103825283818151815260200191508051906020019080838360005b838110156101f65780820151818401526020810190506101db565b50505050905090810190601f1680156102235780820380516001836020036101000a031916815260200191505b509250505060405180910390f35b61027d6004803603604081101561024757600080fd5b81019080803573ffffffffffffffffffffffffffffffffffffffff16906020019092919080359060200190929190505050610a2c565b604051808215151515815260200191505060405180910390f35b61029f610a4a565b6040518082815260200191505060405180910390f35b610321600480360360608110156102cb57600080fd5b81019080803573ffffffffffffffffffffffffffffffffffffffff169060200190929190803573ffffffffffffffffffffffffffffffffffffffff16906020019092919080359060200190929190505050610a54565b604051808215151515815260200191505060405180910390f35b6103676004803603602081101561035157600080fd5b8101908080359060200190929190505050610b2d565b6040518082815260200191505060405180910390f35b6103c96004803603604081101561039357600080fd5b8101908080359060200190929190803573ffffffffffffffffffffffffffffffffffffffff169060200190929190505050610b4c565b005b6103d3610bd5565b604051808260ff1660ff16815260200191505060405180910390f35b61043b6004803603604081101561040557600080fd5b8101908080359060200190929190803573ffffffffffffffffffffffffffffffffffffffff169060200190929190505050610bec565b005b6104896004803603604081101561045357600080fd5b81019080803573ffffffffffffffffffffffffffffffffffffffff16906020019092919080359060200190929190505050610c85565b604051808215151515815260200191505060405180910390f35b6104ab610d38565b005b6104f9600480360360408110156104c357600080fd5b81019080803573ffffffffffffffffffffffffffffffffffffffff16906020019092919080359060200190929190505050610ddd565b005b6105276004803603602081101561051157600080fd5b8101908080359060200190929190505050610e86565b005b610531610e9a565b604051808215151515815260200191505060405180910390f35b61058d6004803603602081101561056157600080fd5b81019080803573ffffffffffffffffffffffffffffffffffffffff169060200190929190505050610eb1565b6040518082815260200191505060405180910390f35b6105ef600480360360408110156105b957600080fd5b81019080803573ffffffffffffffffffffffffffffffffffffffff16906020019092919080359060200190929190505050610efa565b005b6105f9610f5c565b005b6106316004803603604081101561061157600080fd5b810190808035906020019092919080359060200190929190505050611001565b604051808273ffffffffffffffffffffffffffffffffffffffff1673ffffffffffffffffffffffffffffffffffffffff16815260200191505060405180910390f35b6106bf6004803603604081101561068957600080fd5b8101908080359060200190929190803573ffffffffffffffffffffffffffffffffffffffff169060200190929190505050611032565b604051808215151515815260200191505060405180910390f35b6106e1611063565b6040518080602001828103825283818151815260200191508051906020019080838360005b83811015610721578082015181840152602081019050610706565b50505050905090810190601f16801561074e5780820380516001836020036101000a031916815260200191505b509250505060405180910390f35b610764611105565b6040518082815260200191505060405180910390f35b6107c66004803603604081101561079057600080fd5b81019080803573ffffffffffffffffffffffffffffffffffffffff1690602001909291908035906020019092919050505061110c565b604051808215151515815260200191505060405180910390f35b61082c600480360360408110156107f657600080fd5b81019080803573ffffffffffffffffffffffffffffffffffffffff169060200190929190803590602001909291905050506111d9565b604051808215151515815260200191505060405180910390f35b6108726004803603602081101561085c57600080fd5b81019080803590602001909291905050506111f7565b6040518082815260200191505060405180910390f35b61089061121d565b6040518082815260200191505060405180910390f35b6108f2600480360360408110156108bc57600080fd5b8101908080359060200190929190803573ffffffffffffffffffffffffffffffffffffffff169060200190929190505050611256565b005b6109566004803603604081101561090a57600080fd5b81019080803573ffffffffffffffffffffffffffffffffffffffff169060200190929190803573ffffffffffffffffffffffffffffffffffffffff1690602001909291905050506112df565b6040518082815260200191505060405180910390f35b610974611366565b6040518082815260200191505060405180910390f35b606060048054600181600116156101000203166002900480601f016020809104026020016040519081016040528092919081815260200182805460018160011615610100020316600290048015610a225780601f106109f757610100808354040283529160200191610a22565b820191906000526020600020905b815481529060010190602001808311610a0557829003601f168201915b5050505050905090565b6000610a40610a3961139f565b84846113a7565b6001905092915050565b6000600354905090565b6000610a6184848461159e565b610b2284610a6d61139f565b610b1d8560405180606001604052806028815260200161255660289139600260008b73ffffffffffffffffffffffffffffffffffffffff1673ffffffffffffffffffffffffffffffffffffffff1681526020019081526020016000206000610ad361139f565b73ffffffffffffffffffffffffffffffffffffffff1673ffffffffffffffffffffffffffffffffffffffff168152602001908152602001600020546118639092919063ffffffff16565b6113a7565b600190509392505050565b6000806000838152602001908152602001600020600201549050919050565b610b7260008084815260200190815260200160002060020154610b6d61139f565b611032565b610bc7576040517f08c379a000000000000000000000000000000000000000000000000000000000815260040180806020018281038252602f815260200180612454602f913960400191505060405180910390fd5b610bd18282611923565b5050565b6000600660009054906101000a900460ff16905090565b610bf461139f565b73ffffffffffffffffffffffffffffffffffffffff168173ffffffffffffffffffffffffffffffffffffffff1614610c77576040517f08c379a000000000000000000000000000000000000000000000000000000000815260040180806020018281038252602f81526020018061269e602f913960400191505060405180910390fd5b610c8182826119b6565b5050565b6000610d2e610c9261139f565b84610d298560026000610ca361139f565b73ffffffffffffffffffffffffffffffffffffffff1673ffffffffffffffffffffffffffffffffffffffff16815260200190815260200160002060008973ffffffffffffffffffffffffffffffffffffffff1673ffffffffffffffffffffffffffffffffffffffff16815260200190815260200160002054611a4990919063ffffffff16565b6113a7565b6001905092915050565b610d7e60405180807f5041555345525f524f4c45000000000000000000000000000000000000000000815250600b0190506040518091039020610d7961139f565b611032565b610dd3576040517f08c379a00000000000000000000000000000000000000000000000000000000081526004018080602001828103825260398152602001806124a56039913960400191505060405180910390fd5b610ddb611ad1565b565b610e2360405180807f4d494e5445525f524f4c45000000000000000000000000000000000000000000815250600b0190506040518091039020610e1e61139f565b611032565b610e78576040517f08c379a000000000000000000000000000000000000000000000000000000000815260040180806020018281038252603681526020018061257e6036913960400191505060405180910390fd5b610e828282611bda565b5050565b610e97610e9161139f565b82611da3565b50565b6000600660019054906101000a900460ff16905090565b6000600160008373ffffffffffffffffffffffffffffffffffffffff1673ffffffffffffffffffffffffffffffffffffffff168152602001908152602001600020549050919050565b6000610f39826040518060600160405280602481526020016125b460249139610f2a86610f2561139f565b6112df565b6118639092919063ffffffff16565b9050610f4d83610f4761139f565b836113a7565b610f578383611da3565b505050565b610fa260405180807f5041555345525f524f4c45000000000000000000000000000000000000000000815250600b0190506040518091039020610f9d61139f565b611032565b610ff7576040517f08c379a00000000000000000000000000000000000000000000000000000000081526004018080602001828103825260378152602001806126426037913960400191505060405180910390fd5b610fff611f69565b565b600061102a8260008086815260200190815260200160002060000161207390919063ffffffff16565b905092915050565b600061105b8260008086815260200190815260200160002060000161208d90919063ffffffff16565b905092915050565b606060058054600181600116156101000203166002900480601f0160208091040260200160405190810160405280929190818152602001828054600181600116156101000203166002900480156110fb5780601f106110d0576101008083540402835291602001916110fb565b820191906000526020600020905b8154815290600101906020018083116110de57829003601f168201915b5050505050905090565b6000801b81565b60006111cf61111961139f565b846111ca85604051806060016040528060258152602001612679602591396002600061114361139f565b73ffffffffffffffffffffffffffffffffffffffff1673ffffffffffffffffffffffffffffffffffffffff16815260200190815260200160002060008a73ffffffffffffffffffffffffffffffffffffffff1673ffffffffffffffffffffffffffffffffffffffff168152602001908152602001600020546118639092919063ffffffff16565b6113a7565b6001905092915050565b60006111ed6111e661139f565b848461159e565b6001905092915050565b60006112166000808481526020019081526020016000206000016120bd565b9050919050565b60405180807f4d494e5445525f524f4c45000000000000000000000000000000000000000000815250600b019050604051809103902081565b61127c6000808481526020019081526020016000206002015461127761139f565b611032565b6112d1576040517f08c379a00000000000000000000000000000000000000000000000000000000081526004018080602001828103825260308152602001806125266030913960400191505060405180910390fd5b6112db82826119b6565b5050565b6000600260008473ffffffffffffffffffffffffffffffffffffffff1673ffffffffffffffffffffffffffffffffffffffff16815260200190815260200160002060008373ffffffffffffffffffffffffffffffffffffffff1673ffffffffffffffffffffffffffffffffffffffff16815260200190815260200160002054905092915050565b60405180807f5041555345525f524f4c45000000000000000000000000000000000000000000815250600b019050604051809103902081565b600033905090565b600073ffffffffffffffffffffffffffffffffffffffff168373ffffffffffffffffffffffffffffffffffffffff16141561142d576040517f08c379a000000000000000000000000000000000000000000000000000000000815260040180806020018281038252602481526020018061261e6024913960400191505060405180910390fd5b600073ffffffffffffffffffffffffffffffffffffffff168273ffffffffffffffffffffffffffffffffffffffff1614156114b3576040517f08c379a00000000000000000000000000000000000000000000000000000000081526004018080602001828103825260228152602001806124de6022913960400191505060405180910390fd5b80600260008573ffffffffffffffffffffffffffffffffffffffff1673ffffffffffffffffffffffffffffffffffffffff16815260200190815260200160002060008473ffffffffffffffffffffffffffffffffffffffff1673ffffffffffffffffffffffffffffffffffffffff168152602001908152602001600020819055508173ffffffffffffffffffffffffffffffffffffffff168373ffffffffffffffffffffffffffffffffffffffff167f8c5be1e5ebec7d5bd14f71427d1e84f3dd0314c0f7b2291e5b200ac8c7c3b925836040518082815260200191505060405180910390a3505050565b600073ffffffffffffffffffffffffffffffffffffffff168373ffffffffffffffffffffffffffffffffffffffff161415611624576040517f08c379a00000000000000000000000000000000000000000000000000000000081526004018080602001828103825260258152602001806125f96025913960400191505060405180910390fd5b600073ffffffffffffffffffffffffffffffffffffffff168273ffffffffffffffffffffffffffffffffffffffff1614156116aa576040517f08c379a00000000000000000000000000000000000000000000000000000000081526004018080602001828103825260238152602001806124316023913960400191505060405180910390fd5b6116b58383836120d2565b6117218160405180606001604052806026815260200161250060269139600160008773ffffffffffffffffffffffffffffffffffffffff1673ffffffffffffffffffffffffffffffffffffffff168152602001908152602001600020546118639092919063ffffffff16565b600160008573ffffffffffffffffffffffffffffffffffffffff1673ffffffffffffffffffffffffffffffffffffffff168152602001908152602001600020819055506117b681600160008573ffffffffffffffffffffffffffffffffffffffff1673ffffffffffffffffffffffffffffffffffffffff16815260200190815260200160002054611a4990919063ffffffff16565b600160008473ffffffffffffffffffffffffffffffffffffffff1673ffffffffffffffffffffffffffffffffffffffff168152602001908152602001600020819055508173ffffffffffffffffffffffffffffffffffffffff168373ffffffffffffffffffffffffffffffffffffffff167fddf252ad1be2c89b69c2b068fc378daa952ba7f163c4a11628f55a4df523b3ef836040518082815260200191505060405180910390a3505050565b6000838311158290611910576040517f08c379a00000000000000000000000000000000000000000000000000000000081526004018080602001828103825283818151815260200191508051906020019080838360005b838110156118d55780820151818401526020810190506118ba565b50505050905090810190601f1680156119025780820380516001836020036101000a031916815260200191505b509250505060405180910390fd5b5060008385039050809150509392505050565b61194a816000808581526020019081526020016000206000016120e290919063ffffffff16565b156119b25761195761139f565b73ffffffffffffffffffffffffffffffffffffffff168173ffffffffffffffffffffffffffffffffffffffff16837f2f8788117e7eff1d82e926ec794901d17c78024a50270940304540a733656f0d60405160405180910390a45b5050565b6119dd8160008085815260200190815260200160002060000161211290919063ffffffff16565b15611a45576119ea61139f565b73ffffffffffffffffffffffffffffffffffffffff168173ffffffffffffffffffffffffffffffffffffffff16837ff6391f5c32d9c69d2a47ea670b442974b53935d1edc7fd64eb21e047a839171b60405160405180910390a45b5050565b600080828401905083811015611ac7576040517f08c379a000000000000000000000000000000000000000000000000000000000815260040180806020018281038252601b8152602001807f536166654d6174683a206164646974696f6e206f766572666c6f77000000000081525060200191505060405180910390fd5b8091505092915050565b600660019054906101000a900460ff16611b53576040517f08c379a00000000000000000000000000000000000000000000000000000000081526004018080602001828103825260148152602001807f5061757361626c653a206e6f742070617573656400000000000000000000000081525060200191505060405180910390fd5b6000600660016101000a81548160ff0219169083151502179055507f5db9ee0a495bf2e6ff9c91a7834c1ba4fdd244a5e8aa4e537bd38aeae4b073aa611b9761139f565b604051808273ffffffffffffffffffffffffffffffffffffffff1673ffffffffffffffffffffffffffffffffffffffff16815260200191505060405180910390a1565b600073ffffffffffffffffffffffffffffffffffffffff168273ffffffffffffffffffffffffffffffffffffffff161415611c7d576040517f08c379a000000000000000000000000000000000000000000000000000000000815260040180806020018281038252601f8152602001807f45524332303a206d696e7420746f20746865207a65726f20616464726573730081525060200191505060405180910390fd5b611c89600083836120d2565b611c9e81600354611a4990919063ffffffff16565b600381905550611cf681600160008573ffffffffffffffffffffffffffffffffffffffff1673ffffffffffffffffffffffffffffffffffffffff16815260200190815260200160002054611a4990919063ffffffff16565b600160008473ffffffffffffffffffffffffffffffffffffffff1673ffffffffffffffffffffffffffffffffffffffff168152602001908152602001600020819055508173ffffffffffffffffffffffffffffffffffffffff16600073ffffffffffffffffffffffffffffffffffffffff167fddf252ad1be2c89b69c2b068fc378daa952ba7f163c4a11628f55a4df523b3ef836040518082815260200191505060405180910390a35050565b600073ffffffffffffffffffffffffffffffffffffffff168273ffffffffffffffffffffffffffffffffffffffff161415611e29576040517f08c379a00000000000000000000000000000000000000000000000000000000081526004018080602001828103825260218152602001806125d86021913960400191505060405180910390fd5b611e35826000836120d2565b611ea18160405180606001604052806022815260200161248360229139600160008673ffffffffffffffffffffffffffffffffffffffff1673ffffffffffffffffffffffffffffffffffffffff168152602001908152602001600020546118639092919063ffffffff16565b600160008473ffffffffffffffffffffffffffffffffffffffff1673ffffffffffffffffffffffffffffffffffffffff16815260200190815260200160002081905550611ef98160035461214290919063ffffffff16565b600381905550600073ffffffffffffffffffffffffffffffffffffffff168273ffffffffffffffffffffffffffffffffffffffff167fddf252ad1be2c89b69c2b068fc378daa952ba7f163c4a11628f55a4df523b3ef836040518082815260200191505060405180910390a35050565b600660019054906101000a900460ff1615611fec576040517f08c379a00000000000000000000000000000000000000000000000000000000081526004018080602001828103825260108152602001807f5061757361626c653a207061757365640000000000000000000000000000000081525060200191505060405180910390fd5b6001600660016101000a81548160ff0219169083151502179055507f62e78cea01bee320cd4e420270b5ea74000d11b0c9f74754ebdbfc544b05a25861203061139f565b604051808273ffffffffffffffffffffffffffffffffffffffff1673ffffffffffffffffffffffffffffffffffffffff16815260200191505060405180910390a1565b6000612082836000018361218c565b60001c905092915050565b60006120b5836000018373ffffffffffffffffffffffffffffffffffffffff1660001b61220f565b905092915050565b60006120cb82600001612232565b9050919050565b6120dd838383612243565b505050565b600061210a836000018373ffffffffffffffffffffffffffffffffffffffff1660001b6122b1565b905092915050565b600061213a836000018373ffffffffffffffffffffffffffffffffffffffff1660001b612321565b905092915050565b600061218483836040518060400160405280601e81526020017f536166654d6174683a207375627472616374696f6e206f766572666c6f770000815250611863565b905092915050565b6000818360000180549050116121ed576040517f08c379a000000000000000000000000000000000000000000000000000000000815260040180806020018281038252602281526020018061240f6022913960400191505060405180910390fd5b8260000182815481106121fc57fe5b9060005260206000200154905092915050565b600080836001016000848152602001908152602001600020541415905092915050565b600081600001805490509050919050565b61224e838383612409565b612256610e9a565b156122ac576040517f08c379a000000000000000000000000000000000000000000000000000000000815260040180806020018281038252602a8152602001806126cd602a913960400191505060405180910390fd5b505050565b60006122bd838361220f565b61231657826000018290806001815401808255809150506001900390600052602060002001600090919091909150558260000180549050836001016000848152602001908152602001600020819055506001905061231b565b600090505b92915050565b600080836001016000848152602001908152602001600020549050600081146123fd576000600182039050600060018660000180549050039050600086600001828154811061236c57fe5b906000526020600020015490508087600001848154811061238957fe5b90600052602060002001819055506001830187600101600083815260200190815260200160002081905550866000018054806123c157fe5b60019003818190600052602060002001600090559055866001016000878152602001908152602001600020600090556001945050505050612403565b60009150505b92915050565b50505056fe456e756d657261626c655365743a20696e646578206f7574206f6620626f756e647345524332303a207472616e7366657220746f20746865207a65726f2061646472657373416363657373436f6e74726f6c3a2073656e646572206d75737420626520616e2061646d696e20746f206772616e7445524332303a206275726e20616d6f756e7420657863656564732062616c616e636545524332305072657365744d696e7465725061757365723a206d75737420686176652070617573657220726f6c6520746f20756e706175736545524332303a20617070726f766520746f20746865207a65726f206164647265737345524332303a207472616e7366657220616d6f756e7420657863656564732062616c616e6365416363657373436f6e74726f6c3a2073656e646572206d75737420626520616e2061646d696e20746f207265766f6b6545524332303a207472616e7366657220616d6f756e74206578636565647320616c6c6f77616e636545524332305072657365744d696e7465725061757365723a206d7573742068617665206d696e74657220726f6c6520746f206d696e7445524332303a206275726e20616d6f756e74206578636565647320616c6c6f77616e636545524332303a206275726e2066726f6d20746865207a65726f206164647265737345524332303a207472616e736665722066726f6d20746865207a65726f206164647265737345524332303a20617070726f76652066726f6d20746865207a65726f206164647265737345524332305072657365744d696e7465725061757365723a206d75737420686176652070617573657220726f6c6520746f20706175736545524332303a2064656372656173656420616c6c6f77616e63652062656c6f77207a65726f416363657373436f6e74726f6c3a2063616e206f6e6c792072656e6f756e636520726f6c657320666f722073656c6645524332305061757361626c653a20746f6b656e207472616e73666572207768696c6520706175736564a2646970667358221220a6e29da391b0f31bd0c4a0c3d96c12aed7eeb0ee71bb77abf918072791701a6c64736f6c63430006020033536166654d6174683a206d756c7469706c69636174696f6e206f766572666c6f77",
  "source": "pragma solidity >=0.4.22 <0.8.0;\n\nimport \"@openzeppelin/contracts/math/Math.sol\";\nimport \"@openzeppelin/contracts/math/SafeMath.sol\";\n// import \"openzeppelin-solidity-2.3.0/contracts/token/ERC20/ERC20Detailed.sol\";\nimport \"@openzeppelin/contracts/token/ERC20/SafeERC20.sol\";\nimport \"@openzeppelin/contracts/utils/ReentrancyGuard.sol\";\nimport \"@openzeppelin/contracts/access/Ownable.sol\";\nimport \"./QuasarToken.sol\";\n\n/// @title Quasar: capital pool that facilitates mutual-like risk sharing \n/// @author Nikita S. Buzov\n/// @notice This contract lets liquidity (coverage) providers to\n///         deposit funds and earn fees + native token rewards,\n///         while users can buy coverage against the pool\ncontract Pool is Ownable, ReentrancyGuard {\n    using SafeMath for uint256;\n    using SafeERC20 for IERC20;\n\n    /* ========== STATE VARIABLES ========== */\n\n    QuasarToken public rewardsToken; // native token for rewards\n    bool private stopped = false; // circuit breaker\n\n    // rewards distribution variables / dictionaries :\n    uint256 public periodFinish = 0;\n    uint256 public rewardRate = 0;\n    uint256 public rewardsDuration = 60 days;\n    uint256 public lastUpdateTime;\n    uint256 public rewardPerEthStored;\n    mapping(address => uint256) public userRewardPerEthPaid;\n    mapping(address => uint256) public rewards;\n\n    // coverage plan variables:\n    uint256 public coveragePrice; // price as percentage of ETH amount covered for 365 days\n    uint256 public coverCount; // id number is simply a count\n    uint256 public mcr; // Minimum Capital Requirement (pool must be able to cover all possible claims)\n    uint256 public availableCapital; // how much of coverage can the pool deliver, equals to (pool - mcr)\n\n    mapping (address => Coverage) public coverageOf; // assign address to the purchased coverage plan\n    mapping (uint256 => bool)  public openClaims; // track open claims\n    mapping (uint256 => address) public buyerOf; // mapping of a coverage plan id to the user\n    struct Coverage {\n        uint256 id;\n        uint256 expirationTime;\n        uint256 coverAmount;\n    }\n\n    // capital pool variables:\n    uint256 public _totalSupply; // capital pool balance (amount of ETH this contract has)\n    mapping(address => uint256) private _balances; // balances of coverage (i.e. liquidity) providers\n\n    /* ========== CONSTRUCTOR ========== */\n\n    constructor() public {\n        rewardsToken = new QuasarToken();           // assign new token as the rewards token\n        rewardsToken.mint(address(this),1000000);   // mint 1000000 QSR to this contract\n        notifyRewardAmount(1000000);                // allocate all the tokens for reward distribution\n        coverCount = 0;\n        coveragePrice = 2;                          // this set the cover price to 2%\n        mcr = 0;\n        availableCapital = 0;\n    }\n\n    /* ========== VIEWS ========== */\n\n    /// @notice View the total supply of ETH deposited into this contract\n    /// @return Amount in Wei\n    function totalSupply() external view returns (uint256) {\n        return _totalSupply;\n    }\n\n    /// @notice View the ETH balance of the capital provider account\n    /// @param account that deposited ETH\n    /// @return Balance in Wei\n    function balanceOf(address account) external view returns (uint256) {\n        return _balances[account];\n    }\n\n    /// @notice View the last time the QSR rewards were applied\n    /// @return the UNIX timestamp\n    function lastTimeRewardApplicable() public view returns (uint256) {\n        return Math.min(block.timestamp, periodFinish);\n    }\n\n    /// @notice View the QSR reward amount per ETH deposited\n    /// @return Amount in QSR tokens\n    function rewardPerEth() public view returns (uint256) {\n        if (_totalSupply == 0) {\n            return rewardPerEthStored;\n        }\n        return\n            rewardPerEthStored.add(\n                lastTimeRewardApplicable().sub(lastUpdateTime).mul(rewardRate).mul(1e18).div(_totalSupply)\n            );\n    }\n\n    /// @notice View the earned QSR rewards\n    /// @param account that earned the rewards\n    /// @return the QSR balance of the account\n    function earned(address account) public view returns (uint256) {\n        return _balances[account].mul(rewardPerEth().sub(userRewardPerEthPaid[account])).div(1e18).add(rewards[account]);\n    }\n\n    /// @notice View the total amount of rewards\n    /// @return amount of QSR rewards for the full distribution period\n    function getRewardForDuration() external view returns (uint256) {\n        return rewardRate.mul(rewardsDuration);\n    }\n\n    /* ========== MUTATIVE FUNCTIONS ========== */\n\n    /// @notice Purchase coverage for specified ETH amount and time period\n    /// @dev This function call must be made with an ETH payment in the amount of `coveragePrice`% / year\n    /// @param _coverPeriod Period for which the coverage plan is active (in units of seconds)\n    /// @param _coverAmount Amount of ETH to be covered by the plan (in units of Wei)\n    /// @return true / false based on success of the function call\n    function buyCoverage(uint256 _coverPeriod, uint256 _coverAmount)\n        external payable\n        stopInEmergency\n        paidEnough(_coverAmount.mul(coveragePrice).mul(_coverPeriod).div(100).div(31536000))\n        validPeriod(_coverPeriod)\n        coverAvailable(_coverAmount)\n        returns(bool)\n    {\n        coverageOf[msg.sender].id = coverCount;\n        coverageOf[msg.sender].expirationTime = now.add(_coverPeriod);\n        coverageOf[msg.sender].coverAmount = _coverAmount;\n        buyerOf[coverCount] = msg.sender;\n        coverCount++;\n        mcr = mcr.add(_coverAmount);\n        availableCapital = _totalSupply.sub(mcr);\n        emit CoverPurchased(msg.sender,_coverPeriod,_coverAmount);\n        return true;\n    }\n\n    /// @notice Deposit ETH to become coverage (liquidity) provider\n    /// @dev This function call should be made with an ETH payment in any amount, no parameters\n    function deposit()\n        external payable\n        nonReentrant\n        stopInEmergency\n        updateReward(msg.sender)\n    {\n        require(msg.value > 0, \"Cannot deposit 0\");\n        _totalSupply = _totalSupply.add(msg.value);\n        _balances[msg.sender] = _balances[msg.sender].add(msg.value);\n        availableCapital = _totalSupply.sub(mcr);\n        emit Deposited(msg.sender,msg.value);\n    }\n\n    /// @notice Withdraw ETH if you are a coverage (liquidity) provider\n    /// @dev If you would like to withdraw all the funds, then just call exit() function\n    /// @param amount Amount of ETH to be withdrawn (in units of Wei)\n    function withdraw(uint256 amount)\n        public\n        nonReentrant\n        stopInEmergency\n        isProvider(msg.sender)\n        updateReward(msg.sender)\n    {\n        require(amount > 0, \"Cannot withdraw 0\");\n        require(amount <= _balances[msg.sender], \"Cannot withdraw more than you deposited\");\n        (bool success, ) = msg.sender.call{value:amount}(\"\");\n        if (success) {\n            _totalSupply = _totalSupply.sub(amount);\n            _balances[msg.sender] = _balances[msg.sender].sub(amount);\n            emit Withdrawn(msg.sender, amount);\n        }\n        \n    }\n\n    /// @notice Claim QSR rewards if you're providing capital\n    /// @dev In this version the rewards distribution doesn't seem to work, though the function calls are successful\n    function getReward()\n        public\n        nonReentrant\n        stopInEmergency\n        updateReward(msg.sender)\n    {\n        uint256 reward = rewards[msg.sender];\n        if (reward > 0) {\n            rewards[msg.sender] = 0;\n            rewardsToken.transfer(msg.sender, reward);\n            emit RewardPaid(msg.sender, reward);\n        }\n    }\n\n    /// @notice Withdraw all ETH and all QSR rewards if you are a coverage (liquidity) provider\n    function exit()\n        external\n    {\n        withdraw(_balances[msg.sender]);\n        getReward();\n    }\n\n    /// @notice Open claim if you own a plan and something happend\n    /// @dev This function call simply sends a message to the contract owner and creates and open claim\n    /// @param statement Message to the contract owner with a statement\n    function openClaim(string calldata statement)\n        external\n        validCover(msg.sender)\n        claimNotOpen(msg.sender)\n    {\n        openClaims[coverageOf[msg.sender].id] = true;\n        emit ClaimOpened(msg.sender, coverageOf[msg.sender].id, statement);\n    }\n\n\n\n    /* ========== RESTRICTED FUNCTIONS ========== */\n\n    /// @notice Resolves claim and sends a payout if the claim is valid\n    /// @param coverageID The coverage ID number of the claim to be resolved by the contract owner\n    /// @param decision Owner's decision for the claim\n    function resolveClaim(uint256 coverageID, bool decision)\n        public\n        onlyOwner\n        nonReentrant\n        claimOpen(coverageID)\n    {\n        openClaims[coverageID] = false;\n        if (decision == true) {\n            address payoutReceiver = buyerOf[coverageID];\n            uint256 payoutAmount = coverageOf[payoutReceiver].coverAmount;\n            (bool success, ) = payoutReceiver.call{value:payoutAmount}(\"\");\n            if (success) {\n                emit ClaimPayedOut(coverageID);\n            }\n        }\n        emit ClaimResolved(coverageID, decision);\n    }\n\n    /// @notice Sets the coverage price\n    /// @param _coveragePrice The coverage price as percentage of ETH amount covered for 365 days\n    function setCoveragePrice(uint256 _coveragePrice)\n        public\n        onlyOwner\n    {\n        coveragePrice = _coveragePrice; //set in percents, e.g. coverPrice = 2 means that the yearly price is 2% of the principal\n        emit CoverPriceUpdated(coveragePrice);\n    }\n\n    /// @notice Circuit breaker, pauses the contract capital flows\n    /// @dev Contract owner can turn off all ETH and QSR capital flows from/to this contract\n    function toggleContractActive()\n        public\n        onlyOwner\n    {\n        stopped = !stopped;\n    }\n\n\n    /// @notice Allocates the minted QSR tokens as reward\n    /// @param reward Number of reward tokens\n    function notifyRewardAmount(uint256 reward)\n        internal\n        updateReward(address(0))\n    {\n        if (block.timestamp >= periodFinish) {\n            rewardRate = reward.div(rewardsDuration);\n        } else {\n            uint256 remaining = periodFinish.sub(block.timestamp);\n            uint256 leftover = remaining.mul(rewardRate);\n            rewardRate = reward.add(leftover).div(rewardsDuration);\n        }\n\n        // Ensure the provided reward amount is not more than the balance in the contract.\n        // This keeps the reward rate in the right range, preventing overflows due to\n        // very high values of rewardRate in the earned and rewardsPerToken functions;\n        // Reward + leftover must be less than 2^256 / 10^18 to avoid overflow.\n        uint balance = rewardsToken.balanceOf(address(this));\n        require(rewardRate <= balance.div(rewardsDuration), \"Provided reward too high\");\n\n        lastUpdateTime = block.timestamp;\n        periodFinish = block.timestamp.add(rewardsDuration);\n        emit RewardAdded(reward);\n    }\n\n    /* ========== MODIFIERS ========== */\n\n    modifier updateReward(address account) {\n        rewardPerEthStored = rewardPerEth();\n        lastUpdateTime = lastTimeRewardApplicable();\n        if (account != address(0)) {\n            rewards[account] = earned(account);\n            userRewardPerEthPaid[account] = rewardPerEthStored;\n        }\n        _;\n    }\n    modifier paidEnough(uint256 _price) { require(msg.value >= _price); _;}\n    modifier validPeriod(uint256 _period) {require(_period >= 1209600 && _period <= 31536000); _;}\n    modifier coverAvailable(uint256 _coverAmount) {require(_coverAmount <= availableCapital); _;}\n    modifier validCover(address _buyer) {require(coverageOf[_buyer].expirationTime >= now); _;}\n    modifier claimOpen(uint256 _coverageID) {require(openClaims[_coverageID] == true); _;}\n    modifier claimNotOpen(address _buyer) {require(openClaims[coverageOf[_buyer].id] != true); _;}\n    modifier isProvider(address _provider) {require(_balances[_provider] > 0); _;}\n    modifier stopInEmergency { if (!stopped) _; }\n\n\n    /* ========== EVENTS ========== */\n\n    event RewardAdded(uint256 reward);\n    event Deposited(address indexed provider, uint256 amount);\n    event Withdrawn(address indexed user, uint256 amount);\n    event RewardPaid(address indexed user, uint256 reward);\n    event CoverPurchased(address indexed buyer, uint256 period, uint256 amount);\n    event CoverPriceUpdated(uint256 newPrice);\n    event ClaimOpened(address indexed buyer, uint256 coverageID, string statement);\n    event ClaimPayedOut(uint256 coverageID);\n    event ClaimResolved(uint256 coverageID, bool decision);\n}\n",
  "sourcePath": "/Users/nikitabuzov/Documents/GitHub/quasar-core/contracts/Pool.sol",
  "compiler": {
    "name": "solc",
    "version": "0.6.2+commit.bacdbe57.Emscripten.clang"
  },
  "schemaVersion": "3.3.1",
  "updatedAt": "2020-12-29T09:47:02.140Z",
  "networkType": "ethereum",
  "devdoc": {
    "author": "Nikita S. Buzov",
    "methods": {
      "balanceOf(address)": {
        "params": {
          "account": "that deposited ETH"
        },
        "returns": {
          "_0": "Balance in Wei"
        }
      },
      "buyCoverage(uint256,uint256)": {
        "details": "This function call must be made with an ETH payment in the amount of `coveragePrice`% / year",
        "params": {
          "_coverAmount": "Amount of ETH to be covered by the plan (in units of Wei)",
          "_coverPeriod": "Period for which the coverage plan is active (in units of seconds)"
        },
        "returns": {
          "_0": "true / false based on success of the function call"
        }
      },
      "deposit()": {
        "details": "This function call should be made with an ETH payment in any amount, no parameters"
      },
      "earned(address)": {
        "params": {
          "account": "that earned the rewards"
        },
        "returns": {
          "_0": "the QSR balance of the account"
        }
      },
      "getReward()": {
        "details": "In this version the rewards distribution doesn't seem to work, though the function calls are successful"
      },
      "openClaim(string)": {
        "details": "This function call simply sends a message to the contract owner and creates and open claim",
        "params": {
          "statement": "Message to the contract owner with a statement"
        }
      },
      "owner()": {
        "details": "Returns the address of the current owner."
      },
      "renounceOwnership()": {
        "details": "Leaves the contract without owner. It will not be possible to call `onlyOwner` functions anymore. Can only be called by the current owner.     * NOTE: Renouncing ownership will leave the contract without an owner, thereby removing any functionality that is only available to the owner."
      },
      "resolveClaim(uint256,bool)": {
        "params": {
          "coverageID": "The coverage ID number of the claim to be resolved by the contract owner",
          "decision": "Owner's decision for the claim"
        }
      },
      "setCoveragePrice(uint256)": {
        "params": {
          "_coveragePrice": "The coverage price as percentage of ETH amount covered for 365 days"
        }
      },
      "toggleContractActive()": {
        "details": "Contract owner can turn off all ETH and QSR capital flows from/to this contract"
      },
      "transferOwnership(address)": {
        "details": "Transfers ownership of the contract to a new account (`newOwner`). Can only be called by the current owner."
      },
      "withdraw(uint256)": {
        "details": "If you would like to withdraw all the funds, then just call exit() function",
        "params": {
          "amount": "Amount of ETH to be withdrawn (in units of Wei)"
        }
      }
    },
    "title": "Quasar: capital pool that facilitates mutual-like risk sharing "
  },
  "userdoc": {
    "methods": {
      "balanceOf(address)": {
        "notice": "View the ETH balance of the capital provider account"
      },
      "buyCoverage(uint256,uint256)": {
        "notice": "Purchase coverage for specified ETH amount and time period"
      },
      "deposit()": {
        "notice": "Deposit ETH to become coverage (liquidity) provider"
      },
      "earned(address)": {
        "notice": "View the earned QSR rewards"
      },
      "exit()": {
        "notice": "Withdraw all ETH and all QSR rewards if you are a coverage (liquidity) provider"
      },
      "getReward()": {
        "notice": "Claim QSR rewards if you're providing capital"
      },
      "getRewardForDuration()": {
        "notice": "View the total amount of rewards"
      },
      "lastTimeRewardApplicable()": {
        "notice": "View the last time the QSR rewards were applied"
      },
      "openClaim(string)": {
        "notice": "Open claim if you own a plan and something happend"
      },
      "resolveClaim(uint256,bool)": {
        "notice": "Resolves claim and sends a payout if the claim is valid"
      },
      "rewardPerEth()": {
        "notice": "View the QSR reward amount per ETH deposited"
      },
      "setCoveragePrice(uint256)": {
        "notice": "Sets the coverage price"
      },
      "toggleContractActive()": {
        "notice": "Circuit breaker, pauses the contract capital flows"
      },
      "totalSupply()": {
        "notice": "View the total supply of ETH deposited into this contract"
      },
      "withdraw(uint256)": {
        "notice": "Withdraw ETH if you are a coverage (liquidity) provider"
      }
    },
    "notice": "This contract lets liquidity (coverage) providers to         deposit funds and earn fees + native token rewards,         while users can buy coverage against the pool"
  }
}